:100000000C945D000C9485000C9485000C943E22A9
:100010000C943E220C943E220C9485000C94850096
:100020000C9485000C9485000C9485000C94672337
:100030000C9485000C9485000C9485000C9485002C
:100040000C949C210C9485000C940C220C94E621B9
:100050000C9485000C9485000C9485000C9485000C
:100060000C9448220C948500000000080002010056
:100070000003040700000000000000000000000072
:10008000250028002B0000000000240027002A0083
:10009000010204081020408001020408102001021F
:1000A00004081020040404040404040402020202EC
:1000B0000202030303030303232411241FBECFEF13
:1000C000D8E0DEBFCDBF12E0A0E0B1E0E6E9F6E5A2
:1000D00002C005900D92A03BB107D9F726E0A0EB36
:1000E000B2E001C01D92AC36B207E1F710E0CDE5F9
:1000F000D0E004C02197FE010E94082ACC35D10728
:10010000C9F70E940F260C94492B0C940000862FEF
:10011000E0919003F0919103309711F0BA010994A6
:100120000895862FE0918E03F0918F03309711F0A0
:10013000BA0109940895862FE0918C03F0918D0304
:10014000309711F0BA0109940895862FE0918A033F
:10015000F0918B03309711F0BA0109940895862F1E
:10016000E0918803F0918903309711F0BA01099466
:100170000895862FE0918603F0918703309711F060
:10018000BA01099408950895862F642FE09192038F
:10019000F0919303309711F0A90109940895E0912B
:1001A0009403F0919503309709F0099408958CBD5C
:1001B0009DBD0895CF93DF93FC01A081B18110977D
:1001C00001F1EC01ED91FC9111970190F081E02D8E
:1001D00069EFCD01099588819981DC01ED91FC9150
:1001E0000190F081E02D62E0099588819981DC0120
:1001F000ED91FC910190F081E02D65E0DF91CF91D0
:100200000994DF91CF910895A0919705B091980539
:10021000ED91FC9111970190F081E02D682FCD01B7
:1002200009941F93CF93DF93182FEB0180915E0504
:1002300090915F056817790760F480915C05909153
:100240005D05C80FD91F188380E0DF91CF911F9102
:100250000895E0918B05F0918C05309711F481E0C1
:10026000F4CF81E080935B058091770590917805CC
:10027000099580915E0590915F05C817D90778F7B9
:10028000DCCFCF93DF93EC01FB0130E020E0C9012C
:10029000880F991F8C179D0778F44081DB014D93DF
:1002A000BD0111979181979599279795942B9C93D0
:1002B0002F5F3F4F3296EBCFC901DF91CF91089569
:1002C000FC01818D928D0895089590E0FC01E8591C
:1002D000FF4F2491FC01E057FF4F3491FC01EC5596
:1002E000FF4FE491EE23C9F0222339F0233001F1CE
:1002F000A8F4213019F1223029F1F0E0EE0FFF1FB0
:10030000E458FF4FA591B4918FB7F894EC91611127
:1003100026C030953E233C938FBF08952730A9F027
:100320002830C9F0243049F7809180008F7D03C0C8
:10033000809180008F7780938000DFCF84B58F77A6
:1003400084BDDBCF84B58F7DFBCF8091B0008F77EC
:100350008093B000D2CF8091B0008F7DF9CF3E2B3B
:10036000DACFCF93DF9390E0FC01E057FF4F249169
:100370008C559F4FFC0184918823C9F090E0880F31
:10038000991FFC01EA57FF4FA591B491FC01E45875
:10039000FF4FC591D49161110DC09FB7F8948C9116
:1003A000209582238C938881282328839FBFDF9107
:1003B000CF910895623051F49FB7F8943C91822F09
:1003C000809583238C93E8812E2BEFCF8FB7F89401
:1003D000EC912E2B2C938FBFEACF8E3008F08E50ED
:1003E0008770806480937C0080917A008064809321
:1003F0007A0080917A0086FDFCCF80917800909100
:10040000790008953FB7F8948091CF039091D0037D
:10041000A091D103B091D20326B5A89B05C02F3F70
:1004200019F00196A11DB11D3FBFBA2FA92F982F1A
:100430008827BC01CD01620F711D811D911D42E015
:10044000660F771F881F991F4A95D1F708958F92DD
:100450009F92AF92BF92CF92DF92EF92FF924B01A9
:100460005C010E9402026B017C010E9402026C1975
:100470007D098E099F09683E734081059105A8F3A7
:1004800021E0821A9108A108B10888EEC80E83E025
:10049000D81EE11CF11C81149104A104B10429F7B8
:1004A000FF90EF90DF90CF90BF90AF909F908F9094
:1004B00008952FB7F8946091CB037091CC0380918D
:1004C000CD039091CE032FBF0895009721F0805C5B
:1004D0009F4F0C94DA0008950895AF92BF92CF9287
:1004E000DF92EF92FF920F931F93CF93DF936C01F4
:1004F0007B018B01040F151FEB015E01AE18BF08D5
:10050000C017D10759F06991D601ED91FC91019086
:10051000F081E02DC6010995892B79F7C501DF919E
:10052000CF911F910F91FF90EF90DF90CF90BF90F0
:10053000AF900895FC01538D448D252F30E0842F1A
:1005400090E0821B930B541710F0CF9608950197FB
:100550000895FC01918D828D981761F0A28DAE0FE8
:10056000BF2FB11D5D968C91928D9F5F9F73928F6F
:1005700090E008958FEF9FEF0895FC01918D828D9B
:10058000981731F0828DE80FF11D858D90E0089568
:100590008FEF9FEF0895FC01918D228D892F90E0C0
:1005A000805C9F4F821B91098F739927089586E481
:1005B00094E00E94CB0221E0892B09F420E0822FF5
:1005C000089580E090E0892B29F00E94D7028111E4
:1005D0000C9400000895FC01A48DA80FB92FB11D43
:1005E000A35ABF4F2C91848D90E001968F73992769
:1005F000848FA689B7892C93A089B1898C91837047
:1006000080648C93938D848D981306C00288F3893F
:10061000E02D80818F7D80830895EF92FF920F936C
:100620001F93CF93DF93EC0181E0888F9B8D8C8D9E
:1006300098131AC0E889F989808185FF15C09FB792
:10064000F894EE89FF896083E889F9898081837055
:10065000806480839FBF81E090E0DF91CF911F9104
:100660000F91FF90EF900895F62E0B8D10E00F5F25
:100670001F4F0F731127E02E8C8D8E110CC00FB6FB
:1006800007FCFACFE889F989808185FFF5CFCE0193
:100690000E94EB02F1CFEB8DEC0FFD2FF11DE35A21
:1006A000FF4FF0829FB7F8940B8FEA89FB89808116
:1006B0008062CFCFCF93DF93EC01888D8823B9F090
:1006C000AA89BB89E889F9898C9185FD03C080815D
:1006D00086FD0DC00FB607FCF7CF8C9185FFF2CFDA
:1006E000808185FFEDCFCE010E94EB02E9CFDF9143
:1006F000CF910895FC0120812EBD9B01215031092D
:1007000041F051810DB407FEFDCF4EB55EBD419362
:10071000F5CF61507109860F971F0DB407FEFDCF0D
:100720002EB5FC0120830895E0914004F09141042E
:10073000808190913F04892B80830895E09140044B
:10074000F0914104908180913F04809589238083BA
:1007500008958EBD00000DB407FEFDCF8EB508953F
:10076000AF92BF92CF92DF92EF92FF920F931F93BF
:10077000CF93DF93CDB7DEB728970FB6F894DEBFDF
:100780000FBECDBF8C017B016A018091430483338E
:10079000E1F45801A40EB51EA016B10609F46FC00D
:1007A0000E949E0380EF0E94A903812F0E94A9034B
:1007B000802F0E94A9030F5F1F4FF70181917F01D6
:1007C0000E94A9030E949403E7CF5B01A40EB51E0B
:1007D0008433C1F40E949E0319830A838D2D80689F
:1007E0008B83CC8264E070E0CE0101960E947A0394
:1007F000AE14BF0409F441C0F70181917F010E944A
:10080000A903F6CF0E949E030F3F110509F028F4BB
:1008100019820A8384E08B830CC017FD17C01982EC
:100820000A8333E0169507953A95E1F7007E0C6050
:100830000B8386E0C816D104A0F5F701DE011496FB
:10084000EA15FB0599F081918D93FACFC80126E056
:10085000969587952A95E1F7807E19830A8301157D
:10086000104C10F48461D7CF8C61D5CFB6016D5F89
:100870007F4FCE0101960E947A030E949403C60125
:1008800028960FB6F894DEBF0FBECDBFDF91CF9193
:100890001F910F91FF90EF90DF90CF90BF90AF909E
:1008A000089563E070E0CE0101960E947A03F7019B
:1008B00081917F010E94A903AE14BF04C1F7DDCF6F
:1008C000CF93DF931F92CDB7DEB7898341E050E02D
:1008D000BE016F5F7F4F90E080E00E94B0030F90F9
:1008E000DF91CF91089590E020914304233339F4B0
:1008F0000C96982F990F990F990F80E008954896BC
:10090000F8CFDA01E0914404F0E0FE2FEE27E60F85
:10091000F71F90E0982F8827A901BD018E0F9F1F18
:100920000C94B003CF93DF9300D0CDB7DEB77983BB
:100930006A8322E030E0AE014F5F5F4F60E170E01C
:100940000E9481040F900F90DF91CF910895CF9373
:10095000DF9300D0CDB7DEB779836A8322E030E041
:10096000AE014F5F5F4F64E070E00E9481040F9022
:100970000F90DF91CF910895CF93DF931F92CDB762
:10098000DEB72091440430E0322F2227260F371F94
:1009900090E0982F8827498341E050E0BE016F5FC7
:1009A0007F4F820F931F0E94B0030F90DF91CF9172
:1009B0000895CF93DF931F92CDB7DEB76983DC0133
:1009C000ED91FC910280F381E02D41E050E0BE0109
:1009D0006F5F7F4F09950F90DF91CF910895FC01D4
:1009E0009485FB018485981303C081E0943008F05E
:1009F00080E00895CF93DF931F92CDB7DEB7698370
:100A0000DC01ED91FC910280F381E02D41E050E0AA
:100A1000BE016F5F7F4F09950F90DF91CF910895D1
:100A20000895FF920F931F93CF93DF93EB01FC0187
:100A3000178A168A2A81211109C02B81211106C02B
:100A40002C81211103C02D81222301F14115510573
:100A5000E9F08A01FC01F08C80E591E00E94D7006A
:100A6000AE014E5F5F4F24E030E06CE070E08F2D10
:100A70000E948104B8018F2D0E94920481E090E0D1
:100A8000DF91CF911F910F91FF90089580E0F7CFF4
:100A9000FC01848595850895FC01848995890895D4
:100AA0002DEA31E0FC0131832083FB01408951892B
:100AB00062897389FC01428353836483758308953B
:100AC000DC01ED91FC91048CF58DE02D09945F9291
:100AD0006F927F928F929F92AF92BF92CF92DF924E
:100AE000EF92FF920F931F93CF93DF935C01690105
:100AF000DA015C90232B19F4CC24CA94DC2C8A01F3
:100B00003A01660E771ED0E0C0E0F12CE12C87E0C0
:100B1000882E912CF50180819181D8016C910C2E49
:100B200001C0660F0A94EAF765296F77DC01ED9141
:100B3000FC910190F081E02D0995BFEFEB1AFB0AC3
:100B4000F801608170E0C4018C1B9D0B02C075959B
:100B500067958A95E2F7562E2196C730D10558F150
:100B6000CE14DF0441F1D5018D919C91652D6F77F5
:100B7000DC01ED91FC910190F081E02D0995BFEF32
:100B8000EB1AFB0A551C5524551C2797E6CFEC148D
:100B9000FD0408F4BFCFDF91CF911F910F91FF901B
:100BA000EF90DF90CF90BF90AF909F908F907F900D
:100BB0006F905F9008950F5F1F4F6016710639F7B1
:100BC000209749F3EC14FD0430F7F5018081918101
:100BD00061E070E001C0660FCA95EAF761506521D7
:100BE000DC01ED91FC910190F081E02DDF91CF913E
:100BF0001F910F91FF90EF90DF90CF90BF90AF903B
:100C00009F908F907F906F905F9009941F93CF93E8
:100C1000DF9300D0CDB7DEB7182F7A836983809138
:100C2000590590915A050097C9F0DC01ED91FC91AE
:100C30000190F081E02D1031B8F461157044A0F4FA
:100C4000612F606E099522E030E0AE014F5F5F4F8B
:100C500062E070E089E595E00E9467050F900F90D3
:100C6000DF91CF911F91089560EF0995809159050B
:100C700090915A05DC01ED91FC910190F081E02DFD
:100C80006FE609958091590590915A05DC01ED9127
:100C9000FC910190F081E02D612F099522E030E078
:100CA000AE014F5F5F4F62E070E089E595E00E9422
:100CB00067058091590590915A05DC01ED91FC91F1
:100CC0000190F081E02D67EF0995C8CFEF92FF9278
:100CD0000F931F93CF93DF93C82F80915905909165
:100CE0005A050097C9F17A018B01DC01ED91FC9165
:100CF0000190F081E02D60EF099580915905909168
:100D00005A05DC01ED91FC910190F081E02D6C2FF2
:100D10000995E7010E0D1F1DC017D10759F030E0EE
:100D200020E0AE0161E070E089E595E00E94670592
:100D30002196F2CF8091590590915A05DC01ED91F1
:100D4000FC910190F081E02D67EFDF91CF911F9131
:100D50000F91FF90EF900994DF91CF911F910F9128
:100D6000FF90EF900895CF92DF92EF92FF920F9352
:100D70001F93CF93DF93FC01E058FF4FE080EE20FC
:100D800009F45CC0EC01C05CDF4FA881B981109709
:100D900009F454C0FC01EF57FF4FC080D180F60129
:100DA00011810081ED91FC9111970190F081E02D6E
:100DB00060EFCD01099588819981DC01ED91FC916D
:100DC0000190F081E02D69E7099588819981DC0126
:100DD000ED91FC910190F081E02D602F09958881C3
:100DE0009981DC01ED91FC910190F081E02D612F62
:100DF0000995F12C01E010E00F5F1F4FE016F1069E
:100E000059F030E020E0A601400F511F61E070E092
:100E1000CE010E946705F0CF88819981DC01ED91B8
:100E2000FC910190F081E02D67EFDF91CF911F9150
:100E30000F91FF90EF90DF90CF900994DF91CF91C9
:100E40001F910F91FF90EF90DF90CF900895009742
:100E500011F00C94B306089520915F03260F3327F9
:100E6000331F21323105ECF420911504FC0190E090
:100E700080E0243069F082E00895A0915F03219121
:100E8000AC01435C5C4FA40FB52FB11D2C930196B0
:100E9000861798F380915F03680F60935F0380E08B
:100EA000089581E008951092150481E08093140460
:100EB0001092EF0361E082E10E94650161E083E14D
:100EC0000E946501E9EBF0E080818E7F8083808164
:100ED0008D7F808388E48093B80085E48093BC0094
:100EE0000895CF93DF9391E090933C038823B9F06A
:100EF000C091B800D091BA008091BC008A7B8093E9
:100F0000BC0060E082E10E94650160E083E10E9434
:100F100065010E945307D093BA00C093B800DF91D7
:100F2000CF9108958F929F92AF92BF92CF92DF920E
:100F3000EF92FF920F931F93CF93DF93D0913E04D4
:100F4000D13208F0D7C0182FC0913D040E94020290
:100F50006B017C018091150481116BC082E080934C
:100F60001504109314048FEF80931304109212044D
:100F7000D0931104ADE1B4E0E1EFF3E080E0D813E9
:100F800091C01092F0038091F003CC0FC82BC09356
:100F9000F0038091EF03813009F088C01092EF03D5
:100FA0000E9402026B017C018091F0038093BB00E0
:100FB0008091170490911804A0911904B0911A041B
:100FC000892B8A2B8B2BA1F00E940202009117041F
:100FD000109118042091190430911A046C197D099C
:100FE0008E099F09061717072807390708F442C01A
:100FF0008091BC0083FDD8CF85EC8093BC000E941B
:1010000002026B017C0180911504823009F450C00A
:10101000809113048F3F09F46FC0809113048032D4
:1010200009F46CC080911304803309F469C084E032
:1010300026C08091170490911804A0911904B091D2
:101040001A04892B8A2B8B2B09F484CF0E9402026D
:101050008090170490901804A0901904B0901A047E
:101060006C197D098E099F0986169706A806B90690
:1010700008F070CF809116040E94710785E01092ED
:101080001C0410923E0410921B04DF91CF911F911B
:101090000F91FF90EF90DF90CF90BF90AF909F9017
:1010A0008F9008959D9191938F5F69CF85EEA5CF25
:1010B0008091170490911804A0911904B0911A041A
:1010C000892B8A2B8B2B09F49ECF0E940202009160
:1010D0001704109118042091190430911A046C1906
:1010E0007D098E099F09061717072807390708F099
:1010F0008ACFC0CF81E0C3CF80E0C1CF82E0BFCF35
:1011000083E0BDCF08950895E0913B0380913A03B9
:10111000E81730F4F0E0E65EFC4F808190E008953F
:101120008FEF9FEF089590913B0380913A032FEF4B
:101130003FEF981748F4E92FF0E0E65EFC4F20817E
:1011400030E09F5F90933B03C901089580913A037B
:1011500090913B03891B990B0895CF92DF92EF92F8
:10116000FF920F931F93CF93DF937C01CB018A01F2
:1011700020911B04222389F0EB016B01C40ED51EC4
:10118000CC15DD0569F06991D701ED91FC910190D5
:10119000F081E02DC7010995F3CF642F0E942C0741
:1011A000C801DF91CF911F910F91FF90EF90DF90D9
:1011B000CF900895CF93DF931F92CDB7DEB76983A9
:1011C00020911B042223F9F020913E04203258F094
:1011D00021E030E0FC013383228390E080E00F9037
:1011E000DF91CF91089580911C04E82FF0E0E35E39
:1011F000FB4F998190838F5F80931C0480933E0402
:1012000081E090E0ECCF61E0CE0101960E942C07D6
:10121000F7CFDF92EF92FF920F931F93CF93DF935D
:10122000EC01D62E7A01890188818C3008F067C0E4
:1012300061E08D2D0E94B1018881282F30E0F901F5
:10124000EE0FFF1FE20FF31FEB51FA4F9D2D9F731F
:101250006081607C692B608320E232E02E193F09B7
:1012600037FF02C02D5F3F4F359527953595279560
:10127000298320E639E0201B310B37FF02C02D5FA8
:101280003F4F35952795359527952A832CE0622F7A
:101290000E94FC29829FB001112430E020E0AB01C4
:1012A000420F531FFA01EE0FFF1FE40FF51FEB5122
:1012B000FA4F908196FD16C02F5F3F4F2C303105BD
:1012C00071F781110FC01092800082E0809381003D
:1012D0001092850010928400B19A80916F00826014
:1012E00080936F00E8818E2F90E0FC01EE0FFF1FCE
:1012F000E80FF91FEB51FA4F808180648083888169
:10130000DF91CF911F910F91FF90EF90DF900895A3
:10131000CF938630B0F421E030E0082E02C0220FD7
:10132000331F0A94E2F74091C4035091C503672B21
:1013300051F420953095242335233093C503209311
:10134000C403CF910895242B352B3093C5032093EC
:10135000C403909118039111F4CFC82F0E94ED019E
:10136000BC018C2FCF910C9406065F926F927F92F6
:101370008F929F92AF92BF92CF92DF92EF92FF92A5
:101380000F931F93CF93DF93833008F061C0D1E0B8
:10139000D80FDD0FDD0FDD0F5D2ED53110F044E1EC
:1013A000542EC62F082FD8508D2E912CC401880F93
:1013B000991F9C01275E3A4F5901D12CC12C10E096
:1013C00077247394D515C8F58EEF8D0F8231F8F41C
:1013D000F601E80DF91DE456FA4F90819230B8F409
:1013E0008C2F872166246394811101C0612C7601C2
:1013F000EE0CFF1C913089F4172937E9E30EF11C3C
:10140000F501EE0DFF1D862D90E091838083770C12
:10141000DF5F8FEFC81AD80AD5CF882371F3F701A1
:10142000E956FF4FEA0DFB1D80819181019729F359
:1014300062E08D2F0E94B101E0CF011119C0F89434
:101440008BB16C2F68276C7F612368276BB9789408
:10145000DF91CF911F910F91FF90EF90DF90CF9090
:10146000BF90AF909F908F907F906F905F90089506
:101470000130D1F4C123F89495B1812F8F738095F9
:1014800089239C2F9F73892B85B988B1612F629521
:1014900066956695637060956823C295C695C695F6
:1014A000C370C62BC8B9D3CF1F70F89498B1812FE1
:1014B000880F880F80958923C123CC0FCC0FC82BB0
:1014C000F1CF8F929F92AF92BF92CF92DF92EF9225
:1014D000FF920F931F93CF93DF93EB01843108F0BA
:1014E00098C0082F10E0F801E456FA4F908193302D
:1014F00009F49CC0943009F08CC08250823108F00D
:1015000081C0F801E050FD4FC080D12C7601EE0C77
:10151000FF1C4B01603282E078070CF03EC0F701FF
:10152000EC0DFD1DE65FF94F8181A8E88A2E912C14
:10153000881A910887FD9394880C991C880C991C33
:10154000092C000CAA08BB08828128E532E0281B80
:10155000310987FD3395220F331F220F331F032ECE
:10156000000C440B550B281939094A095B09DB01AA
:10157000653B710514F0A4EBB0E0B7FF02C0B0E02A
:10158000A0E00E94C32924EB30E040E050E00E943C
:101590009929820E931EA41EB51EF701EC0DFD1DA8
:1015A000E65FF94F20812C3068F5318188E890E0C2
:1015B000831B910937FD9395880F991F880F991FF9
:1015C000881699067CF0328188E592E0831B9109A8
:1015D00037FD9395880F991F880F991F88169906D4
:1015E0000CF4C4010297880F991F4FB7F89430E0AC
:1015F000F901EE0FFF1FE20FF31FEB51FA4F928339
:1016000081834FBF000F111FF801E055FA4FD183BE
:10161000C083DF91CF911F910F91FF90EF90DF90EA
:10162000CF90BF90AF909F908F9008957B01D82F5F
:10163000833041F08BEF800F823020F087EF800FF6
:10164000833058F461E08D2F0E94B101E114F10460
:1016500061F460E08D2F0E946501000F111FF801F9
:10166000E055FA4FF182E082D4CF8FEFE816F10413
:1016700011F461E0EFCFF801E859FF4FE491E33056
:1016800021F148F4E130B9F0E230D1F080E8E81619
:10169000F1047CF7DECFE73011F1E83041F1E430BE
:1016A000A9F780918000806280938000F0928B0087
:1016B000E0928A00D2CF84B5806884BDE7BCCDCFEC
:1016C00084B5806284BDE8BCC8CF8091800080680A
:1016D00080938000F0928900E0928800BECF8091D4
:1016E000B00080688093B000E092B300B6CF8091E4
:1016F000B00080628093B000E092B400AECF9EEF65
:10170000980F923180F4E82FF0E0DF01A456BA4F31
:101710009C91913041F4EE0FFF1FE055FA4F60832A
:1017200071830C9465010895FF920F931F93CF93DB
:10173000DF9300D0CDB7DEB7082F10E0F801EA56EE
:10174000FC4F9081F62EF9220C5E1C4F411104C013
:10175000F80190819F1511F12F2D30E03A832983F4
:10176000A0915905B0915A051097B1F0682F6F708C
:101770006069ED91FC9111970190F081E02DCD0110
:10178000099522E030E0AE014F5F5F4F62E070E00C
:1017900089E595E00E946705F801F0820F900F90AF
:1017A000DF91CF911F910F91FF900895833040F505
:1017B000282F30E0F901E756FC4F6083672B01F1D9
:1017C0002A563C4FF9016081811106C099B19C7F76
:1017D000692341E00C94940B813049F493B126B114
:1017E0009F73F0E42F9F90011124922BF1CF26B12B
:1017F00030E035952795359527952F706223E9CFF1
:101800000895A82FB0E0A050BD4F9C91292F30E043
:10181000F901EE0FFF1FE20FF31FE65FF94FE081C2
:101820002E2F30E0F901EE0FFF1FE20FF31FEB51F7
:10183000FA4F80818F7B80838091FE02981308C0CD
:10184000992319F091509093FE028FEF8C93089595
:101850008823D9F3E091FF02EF5FE093FF02F0E00D
:10186000E155FD4F9083F1CFCF92DF92EF92FF923F
:101870000F931F93CF93DF9300D000D000D0CDB74C
:10188000DEB78C01DC011C968D919C91DC01ED9101
:10189000FC91008CF18DE02D0995F82E81113DC051
:1018A000F801868D811157C00E945902F801C78C3A
:1018B000D0A0E1A0F2A06C197D098E099F096838BB
:1018C00073418105910508F462C0D8015A966D9163
:1018D0007C915B971C968D919C91DC01ED91FC9124
:1018E000D8015C964D915C915D976115710509F485
:1018F00051C00088F189E02D099521E0892B09F478
:1019000020E0F801268F2223C9F103A0F4A1E02DE5
:101910003097E9F181E009953AC0D8011C968D9184
:101920009C91DC01ED91FC910688F789E02D0995E9
:10193000882309F4B5CF8F2D26960FB6F894DEBF15
:101940000FBECDBFDF91CF911F910F91FF90EF9010
:10195000DF90CF90089584859585DC01ED91FC9111
:101960000488F589E02D0995D8019396ED91FC91B5
:10197000309711F080E00995F801168E0E94590207
:10198000D8015F966D937D938D939C939297F80108
:10199000F68CD1CF0684F785E02D2DEA31E03A832D
:1019A00029835696CD90DD90ED90FC905997CB828F
:1019B000DC82ED82FE82BE016F5F7F4F9DCF1F9361
:1019C000CF93DF93EC01162F0E94340C882369F02B
:1019D0008C859D85DC01ED91FC910190F081E02DDD
:1019E000612FDF91CF911F91099490E080E0DF910A
:1019F000CF911F910895CF93DF93EC010E94340C97
:101A0000882359F08C859D85DC01ED91FC91068041
:101A1000F781E02DDF91CF910994DF91CF91089567
:101A2000CF93DF93EC010E94340C882359F08C850E
:101A30009D85DC01ED91FC910484F585E02DDF911D
:101A4000CF9109948FEF9FEFDF91CF910895CF93BE
:101A5000DF93EC010E94340C882359F08C859D851E
:101A6000DC01ED91FC910284F385E02DDF91CF91B3
:101A700009948FEF9FEFDF91CF910895CF93DF937C
:101A8000EC010E94340C882359F08C859D85DC0183
:101A9000ED91FC910084F185E02DDF91CF910994C7
:101AA00090E080E0DF91CF910895FC017687658713
:101AB0000895DC01ED91FC9102A0F3A1E02D0995C0
:101AC00091E089270895862F089581E0862708955B
:101AD00021E0FC018485843008F020E0822F089505
:101AE000089590E080E00895FC0101900020E9F75E
:101AF0003197BF01681B790BAC0181E70C94660636
:101B0000CF93DF93DB019091FE029C3078F530910A
:101B1000FF02682F70E0FB01E050FD4F3323E1F03E
:101B2000C32FD0E0C155DD4F888180833150309381
:101B3000FF02808123E0829FC0011124865F994FBC
:101B40001A161B0674F4141615065CF49A01AD01FE
:101B5000DF91CF910C94090990839F5F9093FE02CF
:101B6000E8CF20E639E040E252E0F2CF8FEA91E0A0
:101B7000DF91CF910C94740D8F929F92AF92BF9290
:101B8000EF92FF920F931F93CF93DF93CDB7DEB702
:101B9000A1970FB6F894DEBF0FBECDBF7C01FA014E
:101BA000CB0119A2223008F42AE08E010F5D1F4FED
:101BB000822E912CB12CA12CBF01A50194010E9471
:101BC000CB29F901CA016A3074F5605DD8016E93C2
:101BD0008D01232B242B252B79F790E080E01097A3
:101BE00089F0FD0101900020E9F73197AF014A1B10
:101BF0005B0BD701ED91FC910280F381E02DB801E0
:101C0000C7010995A1960FB6F894DEBF0FBECDBFF0
:101C1000DF91CF911F910F91FF90EF90BF90AF9008
:101C20009F908F900895695CD1CF0C94AA2A8F92CF
:101C30009F92AF92BF92CF92DF92EF92FF920F935B
:101C40001F93CF93DF937C01EB016C0182E0C80E00
:101C5000D11C4701E5E08E0E911C10E000E0F6017A
:101C600041916F0150E070E060E02AE0CE010E94F7
:101C7000BC0D5C01E881F9810190F081E02D6EE2FC
:101C8000CE0109958A0D9B1D080F191FC814D90490
:101C900031F7F701458150E070E060E02AE0CE01C5
:101CA0000E94BC0D800F911FDF91CF911F910F916A
:101CB000FF90EF90DF90CF90BF90AF909F908F906C
:101CC00008959F92AF92BF92CF92DF92EF92FF92D0
:101CD0000F931F93CF93DF93C82ED12CE601C75EDD
:101CE000DA4FFE01ED57FF4F90819F3709F49FC0F7
:101CF000963061F490911703992341F06630710595
:101D000029F0109217039FEF909300017B01182F89
:101D10000EEF080F023108F564307105F1F0F6019D
:101D2000E050FD4F80818C30C0F490E0FC01EE0F5C
:101D3000FF1FE80FF91FE65FF94FE0818E2F90E05B
:101D4000FC01EE0FFF1FE80FF91FEB51FA4F8081E6
:101D500086FF03C0812F0E94010C52EF952E910E39
:101D600085E0891558F061E070E032E0E316F10497
:101D700011F070E060E0892D0E9488090231C8F4FA
:101D8000E12FE695E695E695F0E0EA56FC4F2081D6
:101D9000312F377081E090E001C0880F3A95EAF763
:101DA000E114F10421F03BE0E316F10401F5822B8C
:101DB00080835601AA0CBB1CF501E055FA4F118235
:101DC00010828CE0E816F10408F0CBC0F701E55171
:101DD000F14F0C94082A0B0F380FFA0E4F0F6E0FAD
:101DE000B10FA50FB10FB10FB10F170F230F8095D2
:101DF0008223DECF35E03915D0F0023120F460E0E7
:101E0000812F0E94B101CD57DF4F88818F3779F044
:101E100082E088830CC0023150F460E0812F0E9480
:101E2000B101CD57DF4F88818F3709F01882DF91DC
:101E3000CF911F910F91FF90EF90DF90CF90BF90C7
:101E4000AF909F900895023190F762E0812F0E9439
:101E5000B101CD57DF4F88818F3711F08BE0888338
:101E6000F501E055FA4F81E090E091838083DFCF68
:101E70000231E8F6FE01ED57FF4F8081833021F4F7
:101E800060E0812F0E94650161E0812F0E94B10115
:101E9000CD57DF4F88818F3751F281E0BACF1330B1
:101EA00049F08BEF810F823028F087EF810F83306C
:101EB00008F0BDCF61E0812F0E94B10161E0812F68
:101EC0000E94B10160E0812F0E946501CD57DF4F74
:101ED00088818F3709F4ABCF83E09BCF023108F0C4
:101EE000A6CFCD57DF4F88818F3711F084E08883EC
:101EF000F601E050FD4F80818F3FA9F090E0FC019A
:101F0000EE0FFF1FE80FF91FE65FF94FE0818E2FFC
:101F100090E0FC01EE0FFF1FE80FF91FEB51FA4FA5
:101F2000808186FD84CF4FEF5FEF6FEF7FEF812FD2
:101F3000DF91CF911F910F91FF90EF90DF90CF90A5
:101F4000BF90AF909F900C94800D1251123008F00A
:101F50006ECFCD57DF4F88818F3709F468CF86E089
:101F600058CF83EC91E0DF91CF911F910F91FF90BB
:101F7000EF90DF90CF90BF90AF909F900C94740D36
:101F80000F931F93CF93DF9381E080931803809189
:101F90001703882329F0109217038FEF8093000115
:101FA00010929903109296031092140310929A03C0
:101FB000109297031092150310929B0310929803AE
:101FC0001092160300E013E0C0E0DFEF82EF8C0F09
:101FD00062E070E0863030F08EEF8C0F823128F4B2
:101FE00061E070E08C2F0E94610EF801D1938F01A7
:101FF000CF5FC43159F71092C5031092C4031092F9
:10200000FF021092FE0210921803DF91CF911F91F0
:102010000F9108954F925F926F927F928F929F924D
:10202000AF92BF92FF920F931F93CF93DF93F82E3F
:102030008B01D42FC22F6F3F760709F490C081E047
:1020400080931B04F0923D0410921C0410923E04F5
:1020500089ED95E00E94DA088C2F0E94920780910A
:10206000FC029091FD028230910538F0880F991F93
:10207000880F991F05970197F1F70E9402024B0103
:102080005C018091150481116CC0CD2FD13208F014
:10209000C0E281E080931504809314049FEF909335
:1020A0001304109212049C0F909311048093F00378
:1020B0009091F0038F2D880F892B8093F0038091EE
:1020C000EF03813009F0A1C01092EF030E940202D9
:1020D0004B015C018091F0038093BB008091170459
:1020E00090911804A0911904B0911A04892B8A2B9D
:1020F0008B2BA1F00E94020240901704509018040C
:102100006090190470901A04681979098A099B096A
:10211000461657066806790608F444C08091BC004C
:1021200083FDD8CF85EC8093BC000E9402024B0156
:102130005C0180911504813009F469C0809112041A
:102140008C1710F4C0911204E1EFF3E0AAE1B3E0C0
:1021500080E08C1761F191919D938F5FFACF00E041
:102160008CCF8091170490911804A0911904B0911C
:102170001A04892B8A2B8B2B09F483CF0E9402022D
:1021800040901704509018046090190470901A043D
:10219000681979098A099B0946165706680679065F
:1021A00008F06FCF809116040E947107C0E0109272
:1021B0003B03C0933A032D2F30E08C2F90E028177B
:1021C00039070CF046C084ED91E00E94740DF09246
:1021D000BC020093BD020CEB12E0AD2EB12CC80185
:1021E0008C5B92408A159B050CF041C00F5F1F4F1E
:1021F00090913A0380913B039817C9F189ED95E0DE
:102200000E949308F8018183EACF85EE8CCF8091FC
:10221000170490911804A0911904B0911A04892B05
:102220008A2B8B2B09F485CF0E9402024090170461
:10223000509018046090190470901A046819790974
:102240008A099B09461657066806790608F071CF79
:10225000A9CF821793070CF0BACF81EF91E00E94CB
:10226000740DD0913A0380913B03D81BB0CFDE5F51
:102270006D2F70E04CEB52E087E7DF91CF911F911B
:102280000F91FF90BF90AF909F908F907F906F9035
:102290005F904F900C946606EF92FF920F931F93FE
:1022A000CF93DF938956823108F033C0EA01162FAD
:1022B000E82FF0E0E25AFE4E0C94082AA41389118C
:1022C0000B13891163138911E9128D128911891178
:1022D0008911891189117011891151128911D31233
:1022E000998195FF0AC08DE092E0DF91CF911F9117
:1022F0000F91FF90EF900C94740D888131E096FB64
:10230000222720F9232798719830D1F148F4992396
:10231000A9F0DF91CF911F910F91FF90EF90089559
:10232000903109F44CC09831A1F7209100011216A8
:102330000CF472C08FEF80930001EBCF30931B043D
:1023400080933D0410921C0410923E0402E0011799
:1023500078F4FE01E00FF11D6181679566276795AE
:102360008081680F89ED95E00E94DA080E5FEFCF5B
:1023700081E00E94920783E191E00197F1F7C9CFD4
:102380009A814B816630A1F430E8439FB00111245B
:10239000690F711D4D814795442747959C81490FD1
:1023A000DF91CF911F910F91FF90EF900C940A1045
:1023B000479544274795490F6FEF7FEFF1CFE091A5
:1023C0000001E7301CF08DE292E08FCF3A819B81D3
:1023D0006630D9F460E8969FA0011124430F511D87
:1023E0009D819795992797953C81930FEF5FE09397
:1023F000000135E0E302F0011124E456FC4F808334
:10240000528341839383248384CF9795992797950B
:10241000930F4FEF5FEFEACF90E0622F022E000C98
:10242000770B35E0492F50E06417750764F0349F4F
:10243000F001359FF00D1124E456FC4F4081481700
:1024400019F09F5FEFCF90E085E0492F50E06417CF
:1024500075071CF19830F8F4FA0131968E9FD0017F
:102460008F9FB00D1124A456BC4F3C91849FF00166
:10247000859FF00D1124E456FC4F308311964D9149
:102480005C9112975283418313963C911397338347
:1024900014963C9134839F5FD8CF21502093000144
:1024A00038CF623078F0898160E8869F90011124EE
:1024B0008881820F932F911D009721F09093FD0248
:1024C0008093FC0280911703811123CFC0E08EEE30
:1024D0008C0F823028F466E070E08C2F0E94610E31
:1024E000CF5FC431A1F781E08093170310923B03C3
:1024F00010923A0310921C0410923E040E9453075B
:1025000082E898E090935E0380935D0383E898E00F
:102510009093620380936103FCCE653008F4F9CE9A
:1025200018818EEF810F823108F0F3CE0981EA80A5
:10253000FB80CC81E12FF0E0E050FD4F80818C30BA
:10254000C0F490E0FC01EE0FFF1FE80FF91FE65FFB
:10255000F94FE0818E2F90E0FC01EE0FFF1FE80F96
:10256000F91FEB51FA4F808186FF03C0812F0E9433
:10257000010C80E8C89FA00111244F0D511D90E867
:10258000E99EB0011124600F711D812F0E94800D02
:1025900064E070E0812FDF91CF911F910F91FF9048
:1025A000EF900C94610E623008F4B3CE8981E0E8BC
:1025B0008E9F900111248881820F932F911D009787
:1025C00029F09093020180930101A3CE81E090E075
:1025D000F8CF623008F49DCE698170E0123091F03E
:1025E0008A81F0E88F9FC0011124682B792B13306A
:1025F00049F08B8190E090E4899F902D88271124E9
:10260000682B792B8881DF91CF911F910F91FF90DB
:10261000EF900C94610A80EF0E9404018CE60E9406
:102620000401CEEF84EF8C0F863020F582E00E940B
:1026300004018AE00E9404018DEF8C0F8230E0F0EB
:1026400089EF8C0F8330F0F417C0C23158F780E067
:102650000E94040181E00E9404018BE00E940401B9
:1026600081E00E94040181E00E94040181E00E9457
:102670000401D8CFC13001F783E00E94040188E053
:102680000E940401C23130F484E00E9404018EE013
:102690000E94040180EF8C0F823030F486E00E94AB
:1026A000040181E00E9404018FE70E940401CF5FD2
:1026B000C23159F687EFDF91CF911F910F91FF90B3
:1026C000EF900C940401662309F423CEC88180EFB7
:1026D0000E9404018EE60E9404018C2F0E940401D6
:1026E000C43140F7D0E0FE01E456FA4F80810E94E9
:1026F0000401CC0FDD1F8E0100551A4FF8018081B7
:102700008F770E940401F801808191819C012078DB
:10271000232B39F0880F892F881F990B8F770E9400
:102720000401C055DA4F888199819C012227307CB1
:10273000232B09F4BFCF990F880B990F982F881F6F
:102740008F770E940401B6CF80EF0E9404018AE6D1
:102750000E940401C2EF8FE7C63008F48C2F0E945C
:102760000401CF5FC630B9F7A5CFAF92BF92CF9229
:10277000DF92EF92FF920F931F93CF93DF9300D0DE
:1027800000D0CDB7DEB78C016B017A018091430494
:102790008333E9F45B016801C40ED51EC016D1066F
:1027A000A9F10E949E038FE00E94A903812F0E943D
:1027B000A903802F0E94A9030F5F1F4F80E00E9492
:1027C000A903F50181935F010E949403E7CF84334D
:1027D00069F50E949E0319830A838F2D8F778B835F
:1027E000EC8264E070E0CE0101960E947A03A701BA
:1027F00070E060E0C6010E94332BE114F10421F087
:10280000B701C6010E947A030E949403C7010F908A
:102810000F900F900F90DF91CF911F910F91FF902C
:10282000EF90DF90CF90BF90AF9008950E949E03ED
:102830000F3F110509F030F419820A831B8263E00F
:1028400070E0D1CF17FD0BC019820A8333E01695D3
:1028500007953A95E1F7007E08600B83F0CFC80139
:1028600026E0969587952A95E1F7807E19830A835D
:102870000115104C18F480618B83E1CF8861FCCF87
:10288000CF93DF931F92CDB7DEB72091440430E0A1
:10289000322F2227260F371F90E0982F882741E0FC
:1028A00050E0BE016F5F7F4F820F931F0E94B513F0
:1028B00089810F90DF91CF910895CF93C82F462F34
:1028C00061E070E00E94BC0461E070E08C2F0E9427
:1028D00040148111F9CFCF910895CF93C82F80E58F
:1028E00091E00E94D70068E070E08C2FCF910C94AB
:1028F0005D14CF93C82F80E591E00E94D70060E17E
:1029000070E08C2FCF910C945D14CF93DF93EC018A
:10291000888D843020F40E94791484E0888FDF91C0
:10292000CF910895CF93C82F80E591E00E94D70002
:1029300063E070E08C2FCF910C944014CF93DF9321
:10294000EC018C858430D0F40E949214843189F09B
:10295000882379F0883169F021E08C3159F4E881DD
:10296000F9810084F185E02DCE01099521E0892BC4
:1029700009F420E0822FDF91CF91089580E0FBCF12
:10298000CF92DF92EF92FF92CF93DF93EC018C8591
:10299000843068F40E946D140E9459026B017C011E
:1029A0008C850E949214811109C084E08C87DF918C
:1029B000CF91FF90EF90DF90CF90089561E070E0AD
:1029C00080E090E00E9427020E945902AB01BC0106
:1029D0004C195D096E097F098D859E85B0E0A0E0E8
:1029E000481759076A077B07D8F28C850E9479142B
:1029F000DCCFCF93FC01C08D80E591E00E94D70031
:102A000060E270E08C2F0E945D1462E070E08C2F19
:102A10000E94401484FD16C062E070E08C2F0E947A
:102A2000401483FF0AC048E162E070E08C2F0E94EE
:102A3000BC0480E090E0CF91089580E591E00E9491
:102A4000D700E3CF40E162E070E08C2F0E94BC042D
:102A500081E0F0CFCF93DF931F92CDB7DEB741E097
:102A600050E0BE016F5F7F4F90E080E00E94B513A1
:102A700089810F90DF91CF910895CF93DF93C4E1C7
:102A8000D0E00E942A15882361F061E070E080E0C8
:102A900090E00E9427022197A1F780E0DF91CF917B
:102AA000089581E0FBCFCF92DF92EF92FF920F93D8
:102AB0001F93CF93DF93CDB7DEB7C454D1090FB6C0
:102AC000F894DEBF0FBECDBFFC0182819381A4814B
:102AD000B58123968CAF9DAFAEAFBFAF239721E0FA
:102AE00023962FAF239723964CAD5DAD6EAD7FAD92
:102AF00023974BAB5CAB6DAB7EAB89AF9AAFABAF03
:102B0000BCAF8DA79EA7AFA7B8AB28AB4DA55EA560
:102B10006FA578A94FA358A769A77AA72EAB4BA991
:102B20005CA96DA97EA949A35AA36BA37CA38B8F33
:102B30009C8FAD8FBE8F4DEA51E05C8B4B8B3FEF8E
:102B40003D8B3E8B3F8B188E5E874D872AA7CFA08B
:102B5000D8A4E9A4FAA4CF86D88AE98AFA8A2CA351
:102B600009A11AA12BA13CA109871A872B873C87B1
:102B70005A8349838B839C83AD83BE8380914504B4
:102B80008111AFC060E372E080E090E00E94270214
:102B9000DFB6F8940EEA10E03AE9E32E30E0F32EC7
:102BA00080914204811125C0F8018491F70194912C
:102BB000E82FF0E0EE0FFF1FEA57FF4FA591B49109
:102BC0008C91982321F461E08AE00E94650161E024
:102BD0008AE00E94B1018CB580618CBD8CB58064A7
:102BE0008CBD61E08DE00E94B10161E08BE00E944C
:102BF000B101809142048F5F80934204DFBEF801EF
:102C00000491E02FF0E0EE0FFF1FE458FF4F859195
:102C100094919093410480934004F701E490E092F2
:102C20003F0461E08AE00E94B1010E94940380E5C4
:102C300091E00E94D70084E38093430480E80E94DF
:102C400060040E943D15882309F481C088E00E9439
:102C500060040E942A15883009F079C080E10E9442
:102C600060040E942A15803109F071C080E00E9442
:102C700060040E942A15182F811169C041E050E0BC
:102C8000BE016D5B7F4F8FE190E00E94B5132496EB
:102C90008FAD2497833009F05AC080E480934404B8
:102CA00042E06EE170E0812F0E94BC0442E06FE1DF
:102CB00070E0812F0E94BC041F5F143089F740E050
:102CC0006EE170E0812F0E94BC0440E06FE170E093
:102CD000812F0E94BC041F5F183089F781E0809328
:102CE000450480E591E00E94D70046E050E06BE3A8
:102CF00071E089E090E00E94B00344E050E0BE0142
:102D00006D5F7F4F8FE090E00E94B00344E050E0A1
:102D1000BE01615F7F4F81E090E00E94B00344E01C
:102D200050E0BE016B5E7F4F85E090E00E94B003F3
:102D300081E08C8789859A85AB85BC858093030566
:102D400090930405A0930505B09306056FC087E333
:102D50008093430480E80E9460040E943D1588230C
:102D600039F188E00E9460040E942A15883001F53C
:102D700080E10E9460040E942A15182F8031C1F45E
:102D800080E00E9460040E942A15811111C041E078
:102D900050E0BE016D5B7F4F89E390E00E94B51368
:102DA00024968FAD2497843019F41093440496CF61
:102DB00083E38093430480E80E9460040E943D15F1
:102DC000882391F180E10E9460040E942A158031DD
:102DD00059F582E10E9460040E942A15823121F592
:102DE00080E00E9460040E942A1581111DC084E0C9
:102DF0008093440415E525961FAF259741E050E0E8
:102E0000BE016C5B7F4F8BE190E00E94B003249683
:102E10001FAF249741E050E0BE016D5B7F4F8AE118
:102E200090E00E94B0035ACF10924304CC5BDF4F76
:102E30000FB6F894DEBF0FBECDBFDF91CF911F91CB
:102E40000F91FF90EF90DF90CF9008951F93CF9355
:102E5000DF931F92CDB7DEB7182F80E591E00E9477
:102E6000D700812F0E94730427E0129FF0011124E4
:102E7000ED52FC4F22813381377041E050E0BE01BA
:102E80006F5F7F4F820F931F0E94B51389810F9050
:102E9000DF91CF911F910895FC01808D843040F423
:102EA000218D328D232B21F00E94261790E008956A
:102EB0008FEF9FEF0895CF93DF93FC01248524309B
:102EC00028F08FEF9FEFDF91CF910895EC010190F3
:102ED000F081E02D0084F185E02D0995892B89F39F
:102EE0008C850E94261790E0EECFDA01E091440431
:102EF000F0E0FE2FEE27E60FF71F90E0982F8827CF
:102F0000A901BD018E0F9F1F0C94B5138F929F9244
:102F1000AF92BF92CF92DF92EF92FF921F93CF9327
:102F2000DF93CDB7DEB72C970FB6F894DEBF0FBE98
:102F3000CDBF2091430414E0222339F16B017C01C1
:102F400080E591E00E94D7005E0127E0A20EB11C4F
:102F5000450110E063E070E0812F0E944014F4010D
:102F600081934F01882349F11F5F143099F710E0D6
:102F7000F50181915F018D31D9F08831C9F08A5115
:102F80008230B0F01F5F143099F7812F2C960FB666
:102F9000F894DEBF0FBECDBFDF91CF911F91FF90A0
:102FA000EF90DF90CF90BF90AF909F908F9008955B
:102FB00060E170E0812F0E945D14A12EB12C83EEA0
:102FC00093E00197F1F742E870E060E0812F0E9402
:102FD000BC044FEF62E070E0812F0E94BC04B60198
:102FE000C114D10491F480910301909104010196E0
:102FF0008115F0EC9F0708F45CC090930401809366
:1030000003016091030170910401812F0E94A704C4
:1030100086E0EBE0F1E0DE01119601900D928A95D9
:10302000E1F7F70183818F778C8384818D8385819C
:103030008E83A7014E5F5F4F24E030E06CE070E0CC
:10304000812F0E948104B601812F0E94920426E004
:1030500030E0AE014F5F5F4F66E070E0812F0E946D
:10306000810461E070E0812F0E945D1427E02A9DB9
:10307000C0012B9D900D11249C012D523C4F7901D4
:10308000F9011182108222E030E0AE01455F5F4F0E
:1030900068E270E0812F0E9475178B859C859827C8
:1030A00089279827F70193838283168215821482D9
:1030B0006CCF80E090ECA1CFCF92DF92EF92FF92A5
:1030C0000F931F93CF93DF9300D000D000D0CDB7E4
:1030D000DEB78C016B017A01FC01808D843010F425
:1030E0000E9479148DEA91E09A838983F6018281A6
:1030F0009381A481B5818B839C83AD83BE83B7010B
:10310000CE0101960E948617F801808F8430A0F4CA
:10311000F586E486128E118E81E026960FB6F8941D
:10312000DEBF0FBECDBFDF91CF911F910F91FF90FA
:10313000EF90DF90CF90089580E0EFCFAF92BF92F5
:10314000CF92DF92EF92FF920F931F93CF93DF9373
:1031500000D000D000D0CDB7DEB7082F6B0180E5DE
:1031600091E00E94D7009E012F5F3F4F79015901E6
:1031700010E063E070E0812F0E944014F50181931C
:103180005F01882341F11F5F143099F710E0F701C8
:1031900081917F018D31D1F08831C1F08A51823027
:1031A000A8F01F5F143099F7812F26960FB6F89478
:1031B000DEBF0FBECDBFDF91CF911F910F91FF906A
:1031C000EF90DF90CF90BF90AF90089560E170E0F6
:1031D000812F0E945D14E12EF12C83EE93E0019784
:1031E000F1F7402F70E060E0812F0E94BC044FEFA8
:1031F00062E070E0812F0E94BC04B601CD2889F402
:10320000809103019091040101968115F0EC9F07D4
:1032100098F19093040180930301609103017091F0
:103220000401812F0E94A70461E070E0812F0E94B9
:103230005D1427E02E9DC0012F9D900D11249C014F
:103240002D523C4F7901F9011182108222E030E0C9
:10325000AE014B5F5F4F68E270E0812F0E947517EF
:103260008D819E81982789279827F70193838283F0
:1032700016821582148298CF80E090ECCACFCF924C
:10328000DF92EF92FF921F93CF93DF93EC017B01CC
:103290006A018C85843048F40E949214882319F0C6
:1032A0008C850E946D1484E08C87F7018281938164
:1032B000A481B5810097A105B10551F490E080E0AB
:1032C000DF91CF911F91FF90EF90DF90CF90089505
:1032D0008F3F9F4FAF4FBF4F89F3809143048111C0
:1032E00003C084E08C87EACF70E060E081E20E9456
:1032F0009E18182F8C87843008F780E591E00E9493
:10330000D700A7014E5F5F4F24E030E06CE070E033
:10331000812F0E948104B601812F0E94920464E0F3
:1033200070E0812F0E945D140E9459026B017C01A4
:103330008C850E949214873109F18C31F9F0882331
:1033400009F4BCCF0E945902AB01BC014C195D09C4
:103350006E097F098D859E85B0E0A0E084179507F2
:10336000A607B70738F061E070E080E090E00E94C7
:103370002702DECF8C850E947914B3CF81E090E0E4
:103380009FCF0F931F93CF93DF93EC018B01888D19
:10339000843010F40E94791480914304811107C095
:1033A00094E0988FDF91CF911F910F910895B8010C
:1033B00082E00E949E18888F843030F41D870C872D
:1033C0001A8E198E81E0EECF80E0ECCF7F928F9243
:1033D0009F92AF92BF92CF92DF92EF92FF920F93A4
:1033E0001F93CF93DF9300D0CDB7DEB7782E8B013C
:1033F0004A01590122E030E0AE014F5F5F4F64E2C5
:1034000070E00E947517E980FA80FE24EF24FE2404
:10341000E00EF11E9701377040914304072D10E034
:10342000433309F042C0085F1F4F102F0027110FD0
:10343000110F110FC901800F911F4733C9F1A90165
:103440004A0D5B1D4130584098F160E078E06B0117
:10345000C21AD30AA601B4010E94B003A5014C19F7
:103460005D09B4016C0D7D1DC8010E94B003EA0C1A
:10347000FB1CF982EA8222E030E0AE014F5F5F4F31
:1034800064E270E0872D0E9481040F900F90DF911D
:10349000CF911F910F91FF90EF90DF90CF90BF9051
:1034A000AF909F908F907F900895005F1F4FBDCF8A
:1034B000A501B401DACFEF92FF921F93CF93DF9370
:1034C00000D0CDB7DEB7182F22E030E0AE014F5F5D
:1034D0005F4F60E270E00E947517E980FA80FE2479
:1034E000EF24FE2422E030E0AE014F5F5F4F60E248
:1034F00070E0812F0E94751789819A81982789270A
:103500009827E816F90689F487E0189FF00111243E
:10351000ED52FC4FF582E482C7010F900F90DF91CE
:10352000CF911F91FF90EF9008957C01DBCF1F9307
:10353000CF93DF93182F80E591E00E94D700812F71
:103540000E945B1AEC0163E070E0812F0E9440143E
:10355000873121F08C3111F0D0E0C0E0CE01DF9155
:10356000CF911F910895CF93DF93EC018C85843028
:1035700060F40E949214873111F08C3131F48C8503
:103580000E94971A8115984088F3DF91CF91089592
:10359000FC018485843010F40C94971A90E080E04C
:1035A00008959F92AF92BF92CF92DF92EF92FF92D7
:1035B0000F931F93CF93DF938C015B01942EE52E25
:1035C000FC01C688D788F08C80E591E00E94D70086
:1035D0008F2D0E945B1AC92DDE2D8C179D0708F4D4
:1035E000EC019E01A501B6018F2D0E94E619F8019C
:1035F000868997898C0F9D1F978B868BCE01DF91D3
:10360000CF911F910F91FF90EF90DF90CF90BF90DF
:10361000AF909F9008958F929F92AF92BF92CF925A
:10362000DF92EF92FF920F931F93CF936C015B0198
:103630008A01FC01C485C430F0F57A01413058405C
:1036400018F0E12C88E0F82E80E591E00E94D70088
:103650008C2F0E945B1A4C0163E070E08C2F0E945B
:103660004014873111F08C3149F58E149F0460F3BA
:1036700080E591E00E94D7009701A50170E060E02D
:103680008C2F0E94E61960E270E08C2F0E945D147E
:1036900062E070E08C2F0E94401484FD17C063E04C
:1036A00070E08C2F0E94401481110BC081E090E0EB
:1036B000F6019383828310E000E010C0F12CE12C2E
:1036C000D7CF80E591E00E94D700E2CF40E162E0F1
:1036D00070E08C2F0E94BC04EF2841F3C801CF9109
:1036E0001F910F91FF90EF90DF90CF90BF90AF9020
:1036F0009F908F900895FF920F931F93CF93DF9326
:1037000000D0CDB7DEB7F82E22E030E0AE014F5F3B
:103710005F4F66E270E00E94751709811A811027D9
:103720000127102722E030E0AE014F5F5F4F66E2D5
:1037300070E08F2D0E94751789819A8198278927BB
:1037400098270817190749F4C8010F900F90DF91C7
:10375000CF911F910F91FF9008958C01E3CF1F939C
:10376000CF93DF93182F87E0189FE0011124CD52EB
:10377000DC4F88819981009761F480E591E00E9497
:10378000D700812F0E947B1B2E81821B9109998378
:103790008883DF91CF911F910895FC018485843047
:1037A00010F40C94AF1B90E080E008954F925F926C
:1037B0007F928F929F92AF92BF92CF92DF92EF92C1
:1037C000FF920F931F93CF93DF9300D0CDB7DEB757
:1037D000782E6B014A01A82EB12C27E0829FC001F0
:1037E0001124FC01ED52FC4F7F010081118180E525
:1037F00091E00E94D7000815190554F4872D0E9406
:103800007B1BF70126818C01021B110911830083A8
:103810000115110529F563E070E0872D0E94401421
:10382000843159F0882349F001E010E08C3111F423
:1038300010E000E0119501951109C8010F900F905B
:10384000DF91CF911F910F91FF90EF90DF90CF907C
:10385000BF90AF909F908F907F905F904F90089512
:10386000801691060CF4840187E08A9DF0018B9DFF
:10387000F00D1124ED52FC4FE280F380C114D1040D
:1038800051F12701F7E05F22872D0E947304840D18
:10389000951D20914304273309F453C09801240D4A
:1038A000351D2130384008F44CC020E038E0490193
:1038B00084189508A401B6010E94B5132601480C8E
:1038C000591C6801C818D908872D0E947304A601E5
:1038D000B2010E94B513E00EF11E87E08A9DF0014F
:1038E0008B9DF00D1124ED52FC4FF382E28220817A
:1038F0003181201B310B318320838681800F912FF2
:10390000911D8A3F910510F4232BF1F487E08A9DE5
:10391000F0018B9DF00D1124ED52FC4F1682F982BF
:10392000EA8222E030E0AE014F5F5F4F68E270E074
:10393000872D0E94810460E470E0872D0E945D1451
:103940007CCFA801B601C5CF868377CFCF93DF9315
:10395000FC01218D328D2115310529F48FEF9FEF68
:10396000DF91CF910895EC01808D4217530708F045
:10397000A9010E94D61B1816190684F7298D3A8DC5
:10398000281B390B3A8F298FEBCF0F931F93CF93BF
:10399000DF931F92CDB7DEB7FC01218D328D232B33
:1039A00041F48FEF9FEF0F90DF91CF911F910F9117
:1039B00008958C0141E050E0BE016F5F7F4FFC0134
:1039C000808D0E94D61B181619065CF7F801818DB0
:1039D000928D0197928F818F898190E0E4CFCF9370
:1039E000DF931F92CDB7DEB741E050E0BE016F5FBD
:1039F0007F4FFC0184850E94D61B1816190634F4EB
:103A0000898190E00F90DF91CF9108958FEF9FEF24
:103A1000F9CFFC018485843010F40C94D61B90E01F
:103A200080E008950F931F93CF93DF9300D0CDB71D
:103A3000DEB7FC0124852430E0F48C0180E591E0C0
:103A40000E94D70022E030E0AE014F5F5F4F60E19F
:103A500070E0F80184850E94751789819A81982702
:103A6000892798270F900F90DF91CF911F910F9189
:103A7000089590E080E0F6CF0F931F93CF93DF93EC
:103A800000D0CDB7DEB7FC0124852430E0F48C01F2
:103A900080E591E00E94D70022E030E0AE014F5F68
:103AA0005F4F64E070E0F80184850E94751789819A
:103AB0009A819827892798270F900F90DF91CF91AF
:103AC0001F910F91089590E080E0F6CF0F931F9320
:103AD000CF93DF93CDB7DEB728970FB6F894DEBF4C
:103AE0000FBECDBF8C01D80159964D915C915A976C
:103AF0004115510551F0ED91FC91048CF58DE02DAF
:103B000070E060E0C8010995EECFF801808D0E9459
:103B1000AF1B892BB1F148E050E0BE016F5F7F4FD2
:103B2000D80158968C910E94D61B18161906F4F4E9
:103B3000D801509684E0FE01319601900D928A954D
:103B4000E1F78D8190E0982F88272E81820F911DBB
:103B5000F801958B848B8F81282F30E0322F22271C
:103B60008885820F932F911D928F818F28960FB693
:103B7000F894DEBF0FBECDBFDF91CF911F910F91A3
:103B8000089590E080E0F2CF4F925F926F927F9223
:103B90008F929F92AF92BF92CF92DF92EF92FF925D
:103BA0000F931F93CF93DF93CDB7DEB763970FB615
:103BB000F894DEBF0FBECDBF7C016B013A01FB0163
:103BC00020E090E080E06AE03191332309F461C0A5
:103BD00040ED430F4A3008F04DC0689FA001699F37
:103BE000500D1124CA01C097830F911D37FD9A957E
:103BF0008F3F910549F340F3F7014281538164817E
:103C0000758180910F0590911005A0911105B091DB
:103C10001205481759076A077B0709F40DC2870187
:103C2000085F1F4F0E9459026F7077277C5FC801A1
:103C30000E94C119813009F004C28DEA91E09A8393
:103C40008983F70182819381A481B5818B839C83D1
:103C5000AD83BE8345E350E0BE016F5F7F4FC80177
:103C60000E941105892BA9F5D12CC12CC8010E94F5
:103C7000851417C03E3209F0BFCF233009F4BCCF02
:103C8000D301A20FB11D12968C932F5F90E080E0BC
:103C90009BCF233009F0B0CFF3018583CC24C394AC
:103CA000D12CC60163960FB6F894DEBF0FBECDBF10
:103CB000DF91CF911F910F91FF90EF90DF90CF9008
:103CC000BF90AF909F908F907F906F905F904F903C
:103CD00008950E945902F7017783668342E050E01D
:103CE000B7016A5F7F4FC8010E94D11A81E090E05E
:103CF0009A83898342E050E0BE016F5F7F4FC80125
:103D00000E94D11A80E091E09A83898342E050E0DA
:103D1000BE016F5F7F4FC8010E94D11A1A821982BB
:103D200042E050E0BE016F5F7F4FC8010E94D11A90
:103D300042E050E0BE016F5F7F4FC8010E94D11A80
:103D400042E050E0BE016F5F7F4FC8010E94D11A70
:103D50005601F6018081882301F16501F601819108
:103D60002F01882311F08E32B1F446018A189B0886
:103D70001814190474F48D8641E050E0BE01635FAD
:103D80007F4FC8010E94D11AA401B501C8010E9449
:103D9000D11A5201DECF6201E1CF1D8641E050E031
:103DA000BE01635F7F4FC8010E94D11AC12CDD2480
:103DB000D394DA82C98242E050E0BE016F5F7F4F48
:103DC000C8010E94D11ADA82C98242E050E0BE01E5
:103DD0006F5F7F4FC8010E94D11AC8010E94F91479
:103DE000892B09F441CFF3E0AF2EB12C230122E05F
:103DF000420E511CD4C0F701428153816481758108
:103E0000808D918DA28DB38D481759076A077B0766
:103E100009F008C1848D958DC59709F003C181A172
:103E200092A15DEFC52EDD24DA940C970CF4ADC0A1
:103E30004CE050E0BE016F5F7F4FC8010E94A61C9E
:103E40008B819C819827892798279A8B898BF701EA
:103E50004681578129813A814217530709F0E7C00B
:103E600097FFE5C08F7092703BEFC32EDD24DA948C
:103E7000892B09F08AC06F807884762467247624A1
:103E80002AEFC22EDD24DA946114710409F47DC096
:103E9000D12CC12C8D819E81982789279827C816FF
:103EA000D906F8F441E050E0BE01635F7F4FC801DE
:103EB0000E94A61C4D85442331F050E070E060E084
:103EC000C8010E94A61C8D858111ECCF44E050E012
:103ED00070E060E0C8010E94A61CFFEFCF1ADF0A65
:103EE000D9CF912C812C41E050E0BE016D5E7F4F17
:103EF000C8010E94A61C4B89842F807C09F06CC0ED
:103F0000442331F050E070E060E0C8010E94A61C3C
:103F10008B898111E8CF42E050E0BE01615F7F4FA5
:103F2000C8010E94A61C42E050E0BE01635F7F4FC3
:103F3000C8010E94A61C44E050E070E060E0C801A7
:103F40000E94A61C42E050E0BE016F5E7F4FC80198
:103F50000E94A61C8F85988949895A8981159140AC
:103F600009F043C0CD84DE84DC24CD24DC2481E050
:103F7000C816D104D1F54115544009F04AC044E0B7
:103F800050E0B201C8010E94A61C21E0A21AB108AB
:103F900009F46CCEFFEFCF16DF0609F067CE0E9462
:103FA00059023B014C01C8010E94661D18161906F2
:103FB0000CF421CF0E9459026619770988099909E2
:103FC000693873418105910548F562E370E080E04E
:103FD00090E00E942702E7CF41E050E070E060E00F
:103FE000C8010E94A61C1B8A93CF5427452754273B
:103FF00070E060E0C8010E94A61CFFEF8F1A9F0AC4
:104000006814790409F06FCF96EFC92EDD24DA9495
:10401000BCCFE7EFCE2EDD24DA94B7CFCC24CA9400
:10402000DC2CB3CF6EEFC62EDD24DA94AECF4CEF8E
:10403000C42EDD24DA94A9CF8EEFC82EDD24DA94C5
:1040400030CED12CC12C2DCECF92DF92EF92FF92A9
:104050000F931F93CF93DF93CDB7DEB7AF970FB614
:10406000F894DEBF0FBECDBF7C016A010DEA11E0FE
:104070001A8309831C861B8688EE93E0A0E0B0E0DB
:104080008D879E87AF87B88B85E191E09A87898776
:10409000188F0F8B198E1A8E1B8E1C8E84E089A3AD
:1040A0001BA70AA71CA61DA61EA61FA68091030576
:1040B00090910405A0910505B09106058EA39FA3DC
:1040C000A8A7B9A78B839C83AD83BE8318861F8264
:1040D000AE01465D5F4FCE0101960E94C41D813046
:1040E0009105B1F4D701ED91FC910488F589E02D9B
:1040F0001DA30CA38CA59DA5AEA5BFA58EA39FA3B4
:10410000A8A7B9A7A601BE016C5D7F4FC70109959D
:10411000AF960FB6F894DEBF0FBECDBFDF91CF9143
:104120001F910F91FF90EF90DF90CF900895CF9265
:10413000DF92EF92FF920F931F93CF93DF93CDB750
:10414000DEB7AF970FB6F894DEBF0FBECDBF8C01C0
:104150006B017A018DEA91E09A8389831B821C822C
:104160001D821E821C861B8648EE53E060E070E0D4
:104170004D875E876F87788B25E131E03A87298705
:10418000988F8F8B198E1A8E1B8E1C8E24E029A37C
:104190009BA78AA71CA61DA61EA61FA6D8011C9613
:1041A0008C91843060F40E949214882321F0F801ED
:1041B00084850E946D1484E0D8011C968C938091B4
:1041C000030590910405A0910505B09106058EA305
:1041D0009FA3A8A7B9A78B839C83AD83BE831886B2
:1041E0001F82AE01465D5F4FB601CE0101960E946F
:1041F000C41D0097C1F0D801ED91FC910684F785AC
:10420000E02D8DEA91E09DA38CA38CA59DA5AEA584
:10421000BFA58EA39FA3A8A7B9A7A701BE016C5DE8
:104220007F4FC8010995AF960FB6F894DEBF0FBE59
:10423000CDBFDF91CF911F910F91FF90EF90DF9055
:10424000CF900895EF92FF920F931F93CF93DF9338
:1042500000D000D0CDB7DEB78C017B01FB01848597
:104260008430A8F08DEA91E0F80191838083128276
:10427000138214821582C8010F900F900F900F9037
:10428000DF91CF911F910F91FF90EF90089580E5FE
:1042900091E00E94D70024E030E0AE014F5F5F4F15
:1042A0006CE070E0F70184850E9475178DEA91E05B
:1042B000F8019183808389819A81AB81BC8182835B
:1042C0009383A483B583D7CF85ED8093BC00809181
:1042D000170490911804A0911904B0911A0407963C
:1042E000A11DB11D23E0B695A795979587952A95B1
:1042F000D1F72091BC0024FD03C01092150408954D
:1043000040911704509118046091190470911A0497
:10431000452B462B472B69F30097A105B10541F0CA
:104320002AE22A95F1F700C00197A109B109E1CF6E
:10433000809116040C9471071F920F920FB60F9282
:1043400011242F933F938F939F93AF93BF938091AB
:10435000CB039091CC03A091CD03B091CE033091CB
:10436000CA0323E0230F2D3758F50196A11DB11D77
:104370002093CA038093CB039093CC03A093CD03E7
:10438000B093CE038091CF039091D003A091D1033D
:10439000B091D2030196A11DB11D8093CF039093DC
:1043A000D003A093D103B093D203BF91AF919F915B
:1043B0008F913F912F910F900FBE0F901F901895E6
:1043C00026E8230F0296A11DB11DD2CF1F920F9296
:1043D0000FB60F9211242F933F934F935F936F93D8
:1043E0007F938F939F93AF93BF93EF93FF9386E455
:1043F00094E00E94EB02FF91EF91BF91AF919F91EA
:104400008F917F916F915F914F913F912F910F907D
:104410000FBE0F901F9018951F920F920FB60F921C
:1044200011242F938F939F93EF93FF93E091560462
:10443000F09157048081E0915C04F0915D0482FD6D
:104440001BC0908180915F048F5F8F732091600407
:10445000821741F0E0915F04F0E0EA5BFB4F958F3B
:1044600080935F04FF91EF919F918F912F910F9017
:104470000FBE0F901F9018958081F4CF1F920F925E
:104480000FB60F9211240F900FBE0F901F9018952A
:104490001F920F920FB60F9211242F933F934F93B9
:1044A0005F936F937F938F939F93AF93BF93EF939C
:1044B000FF938091B900887F803609F44AC0F0F5F7
:1044C000883209F4A7C018F5803109F49BC0B8F40C
:1044D000882309F4F9C0883009F494C0FF91EF9162
:1044E000BF91AF919F918F917F916F915F914F910C
:1044F0003F912F910F900FBE0F901F90189588310C
:1045000009F488C0803251F78093130414C08034BA
:1045100009F49DC040F48033B9F38833F9F68093F1
:10452000130485ECB0C0803509F485C0883509F4E2
:1045300096C0883499F60E946421D0CF883909F456
:104540008CC038F5883729F050F4883611F0803760
:1045500029F683E0809315041092830357C08838AE
:1045600009F47BC0803919F0803809F0B7CF809109
:104570008303803208F071C0E091830381E08E0FE5
:10458000809383038091BB00F0E0ED59FC4F808362
:104590003DC0803B39F0E0F4803A09F479C0883AB4
:1045A00009F09CCF84E08093150410926003109270
:1045B0005F03E0915D03F0915E03099580915F03D5
:1045C00081110FC081E080935F0310923D0309C009
:1045D000803C09F4A6CF883C09F4A3CF883B09F0BE
:1045E0007DCFE091600381E08E0F80936003F0E067
:1045F000E35CFC4F80818093BB00909160038091CD
:104600005F0329C08091F0038093BB0085EC809309
:10461000BC0064CF9091120480911104981758F552
:10462000E091120481E08E0F80931204F0E0EF50CD
:10463000FC4F8081E9CFE091120481E08E0F8093DE
:1046400012048091BB00F0E0EF50FC4F808390910A
:104650001204809111049817C8F285E8D8CFE09130
:10466000120481E08E0F809312048091BB00F0E071
:10467000EF50FC4F80838091140481115CCF81E066
:104680008093EF0384EA8093BC001092150426CF38
:1046900085EC8093BC0010921504809183038032D6
:1046A00030F4E0918303F0E0ED59FC4F108260910B
:1046B000830370E0E0916103F091620383E693E08D
:1046C0000995109283030ACF1092130434CF1F92DE
:1046D0000F920FB60F9211242F933F934F935F9336
:1046E0006F937F938F939F93AF93BF93CF93DF93FA
:1046F000EF93FF9380911903C0910906D0E087FFE3
:1047000024C01092850010928400809119038F5F5D
:104710008093190380911903082E000C990B8C17B4
:104720009D0724F4809119038C30C4F1809184009A
:1047300090918500049680349C4908F47AC0809159
:10474000840090918500049676C080911903082E0C
:10475000000C990B8C179D07C4F6E09119038E2F5E
:10476000EE0F990BFC01EE0FFF1FE80FF91FEB5145
:10477000FA4F808186FFC9CFE09119038E2FEE0F8B
:10478000990BFC01EE0FFF1FE80FF91FEB51FA4FD9
:10479000808160E08F730E946501B7CF2091840013
:1047A00030918500E09119038E2FEE0F990BFC01DB
:1047B000EE0FFF1FE80FF91FEB51FA4F8181928135
:1047C000820F931F9093890080938800E0911903D2
:1047D0008E2FEE0F990BFC01EE0FFF1FE80FF91F54
:1047E000EB51FA4F808186FF11C0E09119038E2FA3
:1047F000EE0F990BFC01EE0FFF1FE80FF91FEB51B5
:10480000FA4F808161E08F730E946501FF91EF9103
:10481000DF91CF91BF91AF919F918F917F916F91D8
:104820005F914F913F912F910F900FBE0F901F906E
:10483000189580E49CE990938900809388008FEF1D
:1048400080931903E3CF109249041092480448EE74
:1048500053E060E070E040934A0450934B0460934F
:104860004C0470934D0485E491E090934704809349
:10487000460485EC90E0909353048093520484ECBA
:1048800090E0909355048093540480EC90E09093D2
:1048900057048093560481EC90E0909359048093E0
:1048A000580482EC90E090935B0480935A0486EC69
:1048B00090E090935D0480935C0410925F041092EA
:1048C000600410926104109262048DEA91E090936A
:1048D000E4048093E3041092E5041092E60410923D
:1048E000E7041092E8049093EA048093E90410929C
:1048F000EB041092EC041092ED041092EE049093ED
:10490000F0048093EF041092F1041092F2041092DC
:10491000F3041092F4049093F6048093F50410923B
:10492000F7041092F8041092F9041092FA0490938C
:10493000FC048093FB041092FD041092FE0410927C
:10494000FF041092000590930805809307051092CC
:10495000090510920A0510920B0510920C05909310
:104960000205809301051092030510920405109230
:1049700005051092060590930E0580930D05109283
:104980000F051092100510921105109212059093C8
:1049900014058093130510921505109216051092B8
:1049A00017051092180529E135E010925A0510926A
:1049B000590530935D0520935C05E0E4F0E0F09349
:1049C0005F05E0935E0510926005109261051092FC
:1049D00063051092620510926405109266051092AC
:1049E0006505109268051092670510926A0510928D
:1049F000690510926C0510926B0510926E0510926D
:104A00006D051092700510926F051092720510924C
:104A10007105109278051092770510927A05109220
:104A2000790510927C0510927B0510927E051092FC
:104A30007D0510928C0510928B0510925B051092EB
:104A4000990510929B0510929A051092D805E7E8F7
:104A5000F0E0F0938005E0937F05E1E9F0E0F0936A
:104A60008205E0938105EBE9F0E0F0938405E093A3
:104A70008305E5EAF0E0F0938605E0938505EFEA2B
:104A8000F0E0F0938805E0938705E9EBF0E0F09320
:104A90008A05E0938905E3ECF0E0F0938E05E0935E
:104AA0008D05E4ECF0E0F0939005E0938F05E7E2EC
:104AB000F7E0F0939205E09391053093740520930D
:104AC0007305E5E6F2E0F0939405E09393053093E7
:104AD0007605209375052FEC30E0309396052093F2
:104AE00095051092DC051092DB054093DD0550938F
:104AF000DE056093DF057093E00527E531E0309334
:104B0000DA052093D905909363068093620610928C
:104B1000640610926506109266061092670610925F
:104B200056061092550640935706509358066093C8
:104B3000590670935A062BE731E0309354062093C0
:104B4000530624E020935F0628EE33E0309361069D
:104B50002093600610923106109230064093320680
:104B600050933306609334067093350629E631E09E
:104B700030932F0620932E0623E536E030933B0634
:104B800020933A0690933D0680933C062AE02093BA
:104B90003E0610923F06109240063FE030934106D9
:104BA0009093430680934206209344061092450654
:104BB0001092460683E080934706109249061092B1
:104BC000480686ED9BE090934B0680934A06109230
:104BD0004C061092520610925106EAE0F6E02FEFD2
:104BE00048EB5BE0809109068C30B8F491E0980FB7
:104BF00090930906808390E0DC01AA0FBB1FA80FE9
:104C0000B91FAB51BA4F12965C934E9311973396DE
:104C100086E0EE32F80731F708952083F8CFCF937E
:104C2000DF9300D000D000D0CDB7DEB7789484B544
:104C3000826084BD84B5816084BD85B5826085BD98
:104C400085B5816085BD80916E00816080936E0026
:104C50001092810080918100826080938100809118
:104C600081008160809381008091800081608093C9
:104C700080008091B10084608093B1008091B00089
:104C800081608093B00080917A00846080937A0084
:104C900080917A00826080937A0080917A008160AE
:104CA00080937A0080917A00806880937A001092D5
:104CB000C1008CE692E090935206809351060DEA73
:104CC00011E01A8309838AE08B831C821D828FE0A6
:104CD0008E83CE0101960E9453151A8309831B828D
:104CE0001C821D821E8280E591E00E94D70044E074
:104CF00050E0BE016D5F7F4F8FE090E00E94B513E2
:104D00008DE18093990580919A0590919B050E9471
:104D1000AA2A0091990510E0C80101960E940E2A66
:104D200090939B0580939A05FC01E00FF11F108280
:104D300022E0DC012C9325E011962C93A80142502F
:104D4000510964E972E002960E943A2B81E69AE0EA
:104D5000909391038093900385EB99E090938F0358
:104D600080938E0388E899E090938D0380938C0361
:104D700086ED9BE090938B0380938A0381E69EE00F
:104D800090938903809388038FE79BE09093870338
:104D9000809386038CE491E1909393038093920334
:104DA00080EC9FE0909395038093940390E080E0E3
:104DB0002FE7843021F036EF380F343038F4FC011F
:104DC000E456FA4F30813F3709F020830196843151
:104DD000910579F761E084E00E94B10161E084E02F
:104DE0000E9465018EE296E0909398058093970566
:104DF00090935A058093590589E595E00E94DA0061
:104E000089E195E00E94B3060E94C00F25E0B22E12
:104E100000E010E0AA24A39432E0E32EF12CCC248D
:104E2000C394D12C80919903882349F069B1809172
:104E3000960368236C7F40E080E00E94940B809191
:104E40009A03882379F063B186B16F73B0E48B9FC6
:104E5000C0011124682B80919703682340E081E012
:104E60000E94940B80919B03882359F066B1809136
:104E700098038F7066956695682340E082E00E94F3
:104E8000940B8091970590919805DC01ED91FC9130
:104E90000084F185E02D0995892B09F4CEC180911C
:104EA000970590919805DC01ED91FC910284F385C2
:104EB000E02D09959C018F3F980719F3982F809159
:104EC0006405882309F492C0973F09F07EC01092D0
:104ED0006405A0915C05B0915D056C916137C1F1ED
:104EE000693709F05CC0E0919105F0919205309727
:104EF00041F280916505909166058330910560F4DB
:104F000030E020E050E040E070E060E08091730528
:104F1000909174050995B5CFBD016D5F7F4F0397E3
:104F20000E944101BC016D5F7F4F80E00E94110132
:104F3000E0915C05F0915D059F012D5F3F4F42813F
:104F400050E0618170E0E0919105F0919205DECF33
:104F500080918D0590918E05892B09F492CFBD012A
:104F60006F5F7F4F809165059091660501970E9464
:104F70004101BC016F5F7F4F80E00E941101609191
:104F80005C0570915D056F5F7F4FE0918D05F0913D
:104F90008E058091790590917A05099572CFE091FF
:104FA0008F05F0919005309709F46BCF9D012F5F2D
:104FB0003F4F4091650550916605415051098091E0
:104FC0007B0590917C0509955CCF6091650570919A
:104FD0006605822F0E9411018091650590916605FA
:104FE000019690936605809365054BCF60916205AD
:104FF000709163056115710509F4B1C027FDAFC05B
:10500000615071097093630560936205822F0E945D
:1050100011018091620590916305892B09F031CFD0
:1050200080916005882309F42CCF803D09F483C06A
:1050300040F4803949F1803C09F469C01092600560
:1050400020CF843FE1F1853F09F44DC0803EB1F7A8
:10505000E0917F05F0918005309781F3A0915C0588
:10506000B0915D054C9120E8429FC001112411963A
:105070004C91480F592F511D609161058091670532
:10508000909168050995DACFE0918105F09182054C
:105090003097A1F2A0915C05B0915D054C9120E89C
:1050A000429FC001112411964C91480F592F511D58
:1050B000609161058091690590916A05E3CFE09167
:1050C0008705F0918805309709F4B8CFA0915C0569
:1050D000B0915D054C9150E011966C9180916F05F7
:1050E00090917005CFCFE0918905F0918A053097B6
:1050F00009F4A4CFA0915C05B0915D054C9150E0FE
:1051000011966C918091710590917205BBCFE091E1
:105110008305F0918405309709F490CFA0915C0548
:10512000B0915D054C9150E06091610580916B05F7
:1051300090916C05A7CFE0918505F0918605309799
:1051400009F47CCFA0915C05B0915D054C9150E0D5
:105150006091610580916D0590916E0593CF903FB0
:1051600030F4822F8F7080936105922F907F903F53
:10517000F1F190F4903CB1F150F4903909F081CE06
:10518000F0926305E0926205909360057ACE903DBF
:1051900049F1903EA9F375CE993F09F442C028F435
:1051A0008CE0890F823060F36CCE9F3F09F069CEAE
:1051B00010926305109262051092600510926105CD
:1051C00090E080E020915E0530915F0582179307A3
:1051D000A8F4E0915C05F0915D05E80FF91F1082DD
:1051E0000196F0CFD0926305C0926205CDCFA09218
:1051F0006405109266051092650543CE1092640511
:105200001092660510926505E0919505F09196055E
:1052100080917D0590917E05309709F432CE0995F5
:1052200030CEE0919305F0919405309709F429CEA2
:105230008091750590917605F2CF0E9459022B015D
:105240003C018091C6039091C703A091C803B0911F
:10525000C903409101015091020170E060E0481AD9
:10526000590A6A0A7B0A441555056605770508F050
:1052700054C0840F951FA61FB71F8093C603909339
:10528000C703A093C803B093C90389E1882E85E0C2
:10529000982E92EF792E85E08715C8F0F401ED572E
:1052A000FF4F8081823099F48091C4039091C503AF
:1052B000072C02C0959587950A94E2F780FF07C0F6
:1052C000872D0E94ED01BC01872D0E940606739474
:1052D000AFEF8A1A9A0AB6E07B12DDCF8091000107
:1052E00087FD1BC0912C292D30E080910001082EF4
:1052F000000C990B8217930784F0B29EF001B39EC5
:10530000F00D1124E456FC4F6181728124814381A8
:1053100080810E940A109394E6CF0115110509F4CB
:1053200081CD0E94D702882309F47CCD0E94000021
:1053300079CD052E97FB1EF400940E94B02957FDED
:1053400007D00E94CB2907FC03D04EF40C94B0295F
:1053500050954095309521953F4F4F4F5F4F0895A1
:1053600090958095709561957F4F8F4F9F4F0895D1
:105370000E94ED29A59F900DB49F900DA49F800DD4
:10538000911D11240895B7FF0C94B8290E94B829E3
:10539000821B930B0895A1E21A2EAA1BBB1BFD01D1
:1053A0000DC0AA1FBB1FEE1FFF1FA217B307E40704
:1053B000F50720F0A21BB30BE40BF50B661F771F5C
:1053C000881F991F1A9469F760957095809590953C
:1053D0009B01AC01BD01CF010895A29FB001B39F15
:1053E000C001A39F700D811D1124911DB29F700DEE
:1053F000811D1124911D0895991B79E004C0991F06
:10540000961708F0961B881F7A95C9F7809508951E
:10541000EE0FFF1F0590F491E02D09940F931F9359
:10542000CF93DF938230910510F482E090E0E09119
:105430006A06F0916B0630E020E0B0E0A0E0309723
:1054400099F42115310509F44AC0281B390B243081
:105450003105D8F58A819B816115710589F1FB01C0
:1054600093838283FE0111C04081518102811381A7
:1054700048175907E0F04817590799F4109761F059
:1054800012960C93129713961C933296CF01DF91CC
:10549000CF911F910F91089500936A0610936B06A8
:1054A000F4CF2115310551F04217530738F0A90107
:1054B000DB019A01BD01DF01F801C1CFEF01F9CF96
:1054C00090936B0680936A06CDCFFE01E20FF31F27
:1054D000819391932250310939832883D7CF20912A
:1054E000680630916906232B41F420910701309121
:1054F00008013093690620936806209105013091D8
:1055000006012115310541F42DB73EB7409109013F
:1055100050910A01241B350BE0916806F091690651
:10552000E217F307A0F42E1B3F0B2817390778F07A
:10553000AC014E5F5F4F2417350748F04E0F5F1FD9
:105540005093690640936806819391939FCFF0E052
:10555000E0E09CCFCF93DF930097E9F0FC01329716
:1055600013821282A0916A06B0916B06ED0130E0C1
:1055700020E01097A1F420813181820F931F2091A8
:105580006806309169062817390709F061C0F09361
:105590006906E0936806DF91CF910895EA01CE177E
:1055A000DF07E8F54A815B819E0141155105B1F79E
:1055B000E901FB83EA8349915991C40FD51FEC1788
:1055C000FD0761F4808191810296840F951FE901A6
:1055D00099838883828193819B838A83F0E0E0E0D2
:1055E00012968D919C9113970097B9F52D913C914E
:1055F0001197CD010296820F931F2091680630917A
:1056000069062817390739F6309751F510926B065D
:1056100010926A06B0936906A0936806BCCFD38344
:10562000C28340815181840F951FC817D90761F447
:105630004E5F5F4F88819981480F591F5183408386
:105640008A819B81938382832115310509F0B0CF34
:10565000F0936B06E0936A069ECFFD01DC01C0CF9C
:1056600013821282D7CFDC0101C06D9341505040AC
:10567000E0F70895FB01DC014150504048F00190F3
:105680000D920020C9F701C01D9241505040E0F733
:065690000895F894FFCF1D
:10569600FF130000C000006C06800001005E0000E1
:1056A6000000000000D904D11A710D64016001C523
:1056B6001C4C17C1195C18851411052420F91466B1
:1056C6001DA61C600550054C05480590A2DA00533E
:1056D600E5000000000D036D029A025A03CB02A9F1
:1056E60002BD0200000000DA08AD08710D6401A6D3
:1056F600089308840800000000DF0C6D02710DFBA2
:105706000C3E0D270D100D00000000FA040B1BC8FF
:105716001AB31ACD1BEF1C5B173F199720091DC042
:10572600149E14680D700D150E650D630DEF04596A
:105736000D3C1D2221121D550D00000000170E4DB7
:10574600617820736572766F732061747461636823
:10575600656400556E6B6E6F776E2070696E206D96
:105766006F6465004932433A20546F6F206D616E55
:1057760079206279746573207265636569766564FC
:10578600004932433A20546F6F206665772062796C
:105796007465732072656365697665640031302DC2
:1057A6006269742061646472657373696E67206EE2
:1057B6006F7420737570706F7274656400746F6FA8
:1057C600206D616E792071756572696573002F555C
:1057D600736572732F6164616E6D617572692F44B2
:1057E6006F63756D656E74732F41726475696E6F44
:1057F6002F6C69627261726965732F4669726D6199
:1058060074612F6578616D706C65732F5374616E6A
:10581600646172644669726D61746145746865722B
:105826006E65742F5374616E646172644669726D3D
:1058360061746145746865726E65742E696E6F0079
:00000001FF
