:100000000C945D000C9485000C9485000C94A91050
:100010000C94A9100C94A9100C9485000C948500E4
:100020000C9485000C9485000C9485000C94D211DE
:100030000C9485000C9485000C9485000C9485002C
:100040000C9407100C9485000C9477100C945110AC
:100050000C9485000C9485000C9485000C9485000C
:100060000C94B3100C9485000000000024002700BD
:100070002A0000000000250028002B0004040404CE
:100080000404040402020202020203030303030342
:10009000010204081020408001020408102001021F
:1000A00004081020000000080002010000030407FB
:1000B00000000000000000008E1211241FBECFEFD0
:1000C000D8E0DEBFCDBF12E0A0E0B1E0E2E3F2E3B2
:1000D00002C005900D92A031B107D9F725E0A0E14B
:1000E000B2E001C01D92A933B207E1F710E0CDE5FF
:1000F000D0E004C02197FE010E94DD17CC35D10766
:10010000C9F70E94A2130C9417190C940000862FB3
:10011000E091F002F091F102309711F0BA010994E8
:100120000895862FE091EE02F091EF02309711F0E2
:10013000BA0109940895862FE091EC02F091ED0246
:10014000309711F0BA0109940895862FE091EA02E0
:10015000F091EB02309711F0BA0109940895862FBF
:10016000E091E802F091E902309711F0BA010994A8
:100170000895862FE091E602F091E702309711F0A2
:10018000BA01099408950895862F642FE091F20230
:10019000F091F302309711F0A90109940895E091CC
:1001A000F402F091F502309709F009940895CF9385
:1001B000DF93FC01A081B181109701F1EC01ED9179
:1001C000FC9111970190F081E02D69EFCD01099527
:1001D00088819981DC01ED91FC910190F081E02D05
:1001E00062E0099588819981DC01ED91FC91019093
:1001F000F081E02D65E0DF91CF910994DF91CF91FF
:100200000895A0919E04B0919F04ED91FC911197E7
:100210000190F081E02D682FCD0109941F93CF93B9
:10022000DF93182FEB0180916504909166046817A5
:10023000790760F48091630490916404C80FD91F1A
:10024000188380E0DF91CF911F910895E09192048F
:10025000F0919304309711F481E0F4CF81E0809322
:10026000620480917E0490917F04099580916504D9
:1002700090916604C817D90778F7DCCFCF93DF9346
:10028000EC01FB0130E020E0C901880F991F8C17B9
:100290009D0778F44081DB014D93BD011197918159
:1002A000979599279795942B9C932F5F3F4F329664
:1002B000EBCFC901DF91CF91089590E0FC01EC559F
:1002C000FF4F2491FC01E057FF4F3491FC01E458AB
:1002D000FF4FE491EE23C9F0222339F0233001F1DE
:1002E000A8F4213019F1223029F1F0E0EE0FFF1FC0
:1002F000EE58FF4FA591B4918FB7F894EC9161112E
:1003000026C030953E233C938FBF08952730A9F037
:100310002830C9F0243049F7809180008F7D03C0D8
:10032000809180008F7780938000DFCF84B58F77B6
:1003300084BDDBCF84B58F7DFBCF8091B0008F77FC
:100340008093B000D2CF8091B0008F7DF9CF3E2B4B
:10035000DACFCF93DF9390E0FC01E057FF4F249179
:1003600084589F4FFC0184918823C9F090E0880F46
:10037000991FFC01E859FF4FA591B491FC01EE587B
:10038000FF4FC591D49161110DC09FB7F8948C9126
:10039000209582238C938881282328839FBFDF9117
:1003A000CF910895623051F49FB7F8943C91822F19
:1003B000809583238C93E8812E2BEFCF8FB7F89411
:1003C000EC912E2B2C938FBFEACF8E3008F08E50FD
:1003D0008770806480937C0080917A008064809331
:1003E0007A0080917A0086FDFCCF80917800909110
:1003F000790008953FB7F89480912F0390913003CE
:10040000A0913103B091320326B5A89B05C02F3FC0
:1004100019F00196A11DB11D3FBFBA2FA92F982F2A
:100420008827BC01CD01620F711D811D911D43E024
:10043000660F771F881F991F4A95D1F708958F92ED
:100440009F92AF92BF92CF92DF92EF92FF926B0199
:100450007C010E94FA014B015C01C114D104E1044A
:10046000F104B9F00E94FA01681979098A099B0917
:10047000683E73408105910580F321E0C21AD108DE
:10048000E108F10888EE880E83E0981EA11CB11CDB
:10049000E4CFFF90EF90DF90CF90BF90AF909F9010
:1004A0008F900895009721F0805C9F4F0C94D700A7
:1004B0000895AF92BF92CF92DF92EF92FF920F9387
:1004C0001F93CF93DF936C017B018B01040F151FEA
:1004D000EB015E01AE18BF08C017D10759F0699152
:1004E000D601ED91FC910190F081E02DC6010995B6
:1004F000892B79F7C501DF91CF911F910F91FF9063
:10050000EF90DF90CF90BF90AF900895FC01538D96
:10051000448D252F30E0842F90E0821B930B5417DD
:1005200010F0CF96089501970895FC01918D828D6A
:10053000981761F0A28DAE0FBF2FB11D5D968C9103
:10054000928D9F5F9F73928F90E008958FEF9FEF42
:100550000895FC01918D828D981731F0828DE80FFE
:10056000F11D858D90E008958FEF9FEF0895FC01B8
:10057000918D228D892F90E0805C9F4F821B910985
:100580008F739927089583E893E00E94B70221E0D2
:10059000892B09F420E0822F089580E090E0892BD8
:1005A00029F00E94C30281110C9400000895FC01FF
:1005B000A48DA80FB92FB11DA35ABF4F2C91848DC4
:1005C00090E001968F739927848FA689B7892C9321
:1005D000A089B1898C91837080648C93938D848D74
:1005E000981306C00288F389E02D80818F7D808377
:1005F0000895EF92FF920F931F93CF93DF93EC0137
:1006000081E0888F9B8D8C8D98131AC0E889F989B9
:10061000808185FF15C09FB7F894EE89FF896083BC
:10062000E889F98980818370806480839FBF81E03D
:1006300090E0DF91CF911F910F91FF90EF9008957F
:10064000F62E0B8D10E00F5F1F4F0F731127E02E5A
:100650008C8D8E110CC00FB607FCFACFE889F98992
:10066000808185FFF5CFCE010E94D702F1CFEB8DBF
:10067000EC0FFD2FF11DE35AFF4FF0829FB7F89466
:100680000B8FEA89FB8980818062CFCFCF93DF9384
:10069000EC01888D8823B9F0AA89BB89E889F9899A
:1006A0008C9185FD03C0808186FD0DC00FB607FCCF
:1006B000F7CF8C9185FFF2CF808185FFEDCFCE0102
:1006C0000E94D702E9CFDF91CF9108955F926F9298
:1006D0007F928F929F92AF92BF92CF92DF92EF92D2
:1006E000FF920F931F93CF93DF935C016901DA01AF
:1006F0005C90232B19F4CC24CA94DC2C8A013A0197
:10070000660E771ED0E0C0E0F12CE12C87E0882E49
:10071000912CF50180819181D8016C910C2E01C042
:10072000660F0A94EAF765296F77DC01ED91FC9179
:100730000190F081E02D0995BFEFEB1AFB0AF8015B
:10074000608170E0C4018C1B9D0B02C0759567959C
:100750008A95E2F7562E2196C730D10558F1CE146E
:10076000DF0441F1D5018D919C91652D6F77DC01FE
:10077000ED91FC910190F081E02D0995BFEFEB1A0E
:10078000FB0A551C5524551C2797E6CFEC14FD0495
:1007900008F4BFCFDF91CF911F910F91FF90EF90A1
:1007A000DF90CF90BF90AF909F908F907F906F9091
:1007B0005F9008950F5F1F4F6016710639F72097FD
:1007C00049F3EC14FD0430F7F5018081918161E07B
:1007D00070E001C0660FCA95EAF761506521DC013F
:1007E000ED91FC910190F081E02DDF91CF911F916F
:1007F0000F91FF90EF90DF90CF90BF90AF909F90C0
:100800008F907F906F905F9009941F93CF93DF93A9
:1008100000D0CDB7DEB7182F7A836983809160044A
:10082000909161040097C9F0DC01ED91FC91019079
:10083000F081E02D1031B8F461157044A0F4612FFF
:10084000606E099522E030E0AE014F5F5F4F62E0DD
:1008500070E080E694E00E9466030F900F90DF91B5
:10086000CF911F91089560EF099580916004909158
:100870006104DC01ED91FC910190F081E02D6FE6C7
:1008800009958091600490916104DC01ED91FC91E7
:100890000190F081E02D612F099522E030E0AE015A
:1008A0004F5F5F4F62E070E080E694E00E94660375
:1008B0008091600490916104DC01ED91FC910190C4
:1008C000F081E02D67EF0995C8CFEF92FF920F936B
:1008D0001F93CF93DF93C82F8091600490916104A0
:1008E0000097C9F17A018B01DC01ED91FC91019037
:1008F000F081E02D60EF0995809160049091610492
:10090000DC01ED91FC910190F081E02D6C2F0995B7
:10091000E7010E0D1F1DC017D10759F030E020E090
:10092000AE0161E070E080E694E00E9466032196EB
:10093000F2CF8091600490916104DC01ED91FC9113
:100940000190F081E02D67EFDF91CF911F910F9122
:10095000FF90EF900994DF91CF911F910F91FF903D
:10096000EF900895CF92DF92EF92FF920F931F9333
:10097000CF93DF93FC01E058FF4FE080EE2009F4B5
:100980005CC0EC01C05CDF4FA881B981109709F40D
:1009900054C0FC01EF57FF4FC080D180F601118198
:1009A0000081ED91FC9111970190F081E02D60EFB5
:1009B000CD01099588819981DC01ED91FC9101902F
:1009C000F081E02D69E7099588819981DC01ED913D
:1009D000FC910190F081E02D602F0995888199812B
:1009E000DC01ED91FC910190F081E02D612F0995E2
:1009F000F12C01E010E00F5F1F4FE016F10659F0F7
:100A000030E020E0A601400F511F61E070E0CE0110
:100A10000E946603F0CF88819981DC01ED91FC9101
:100A20000190F081E02D67EFDF91CF911F910F9141
:100A3000FF90EF90DF90CF900994DF91CF911F91BD
:100A40000F91FF90EF90DF90CF900895009711F0F5
:100A50000C94B20408952091BF02260F3327331F50
:100A600021323105ECF420915903FC0190E080E043
:100A7000243069F082E00895A091BF022191AC0179
:100A800043565D4FA40FB52FB11D2C9301968617C9
:100A900098F38091BF02680F6093BF0280E00895D1
:100AA00081E008951092590381E0809358031092D9
:100AB000330361E082E10E945D0161E083E10E9415
:100AC0005D01E9EBF0E080818E7F808380818D7F06
:100AD000808380E28093B80085E48093BC00089511
:100AE000CF93DF9391E090939C028823B9F0C0915B
:100AF000B800D091BA008091BC008A7B8093BC0082
:100B000060E082E10E945D0160E083E10E945D019E
:100B10000E945205D093BA00C093B800DF91CF91E4
:100B200008958F929F92AF92BF92CF92DF92EF92F1
:100B3000FF920F931F93CF93DF93D0918203D13213
:100B400008F0D7C0182FC09181030E94FA016B01F1
:100B50007C018091590381116BC082E0809359031D
:100B6000109358038FEF8093570310925603D0933E
:100B70005503A1E6B3E0E5E3F3E080E0D81391C0CC
:100B80001092340380913403CC0FC82BC0933403EC
:100B900080913303813009F088C0109233030E94A2
:100BA000FA016B017C01809134038093BB0080913A
:100BB0005B0390915C03A0915D03B0915E03892B70
:100BC0008A2B8B2BA1F00E94FA0100915B031091FC
:100BD0005C0320915D0330915E036C197D098E09E1
:100BE0009F09061717072807390708F442C08091A4
:100BF000BC0083FDD8CF85EC8093BC000E94FA0135
:100C00006B017C0180915903823009F450C08091BE
:100C100057038F3F09F46FC080915703803209F466
:100C20006CC080915703803309F469C084E026C00A
:100C300080915B0390915C03A0915D03B0915E0392
:100C4000892B8A2B8B2B09F484CF0E94FA01809088
:100C50005B0390905C03A0905D03B0905E036C1901
:100C60007D098E099F0986169706A806B90608F021
:100C700070CF80915A030E94700585E01092600346
:100C80001092820310925F03DF91CF911F910F9119
:100C9000FF90EF90DF90CF90BF90AF909F908F909C
:100CA00008959D9191938F5F69CF85EEA5CF809137
:100CB0005B0390915C03A0915D03B0915E03892B6F
:100CC0008A2B8B2B09F49ECF0E94FA0100915B03C3
:100CD00010915C0320915D0330915E036C197D09D6
:100CE0008E099F09061717072807390708F08ACFCA
:100CF000C0CF81E0C3CF80E0C1CF82E0BFCF83E02F
:100D0000BDCF089508950895E0919B0280919A02C5
:100D1000E81730F4F0E0E658FD4F808190E0089548
:100D20008FEF9FEF089590919B0280919A022FEF91
:100D30003FEF981748F4E92FF0E0E658FD4F208187
:100D400030E09F5F90939B02C901089580919A02C1
:100D500090919B02891B990B0895CF92DF92EF929D
:100D6000FF920F931F93CF93DF937C01CB018A01F6
:100D700020915F03222389F0EB016B01C40ED51E85
:100D8000CC15DD0569F06991D701ED91FC910190D9
:100D9000F081E02DC7010995F3CF642F0E942B0548
:100DA000C801DF91CF911F910F91FF90EF90DF90DD
:100DB000CF900895CF93DF931F92CDB7DEB76983AD
:100DC00020915F032223F9F020918203203258F012
:100DD00021E030E0FC013383228390E080E00F903B
:100DE000DF91CF91089580916003E82FF0E0EF59F3
:100DF000FC4F998190838F5F80936003809382037F
:100E000081E090E0ECCF61E0CE0101960E942B05DD
:100E1000F7CF90E080E00895DF92EF92FF920F937A
:100E20001F93CF93DF93EC01D62E7A01890188813D
:100E30008C3008F067C061E08D2D0E94A901888187
:100E4000282F30E0F901EE0FFF1FE20FF31FE451EE
:100E5000FB4F9D2D9F736081607C692B608320E236
:100E600032E02E193F0937FF02C02D5F3F4F359505
:100E7000279535952795298320E639E0201B310BEE
:100E800037FF02C02D5F3F4F359527953595279544
:100E90002A832CE0622F0E94D117829FB001112477
:100EA00030E020E0AB01420F531FFA01EE0FFF1FAD
:100EB000E40FF51FE451FB4F908196FD16C02F5FA4
:100EC0003F4F2C30310571F781110FC01092800017
:100ED00082E0809381001092850010928400B19A84
:100EE00080916F00826080936F00E8818E2F90E088
:100EF000FC01EE0FFF1FE80FF91FE451FB4F80814B
:100F0000806480838881DF91CF911F910F91FF9042
:100F1000EF90DF900895CF938630B0F421E030E079
:100F2000082E02C0220F331F0A94E2F740912403D7
:100F300050912503672B51F42095309524233523B8
:100F40003093250320932403CF910895242B352B30
:100F50003093250320932403909178029111F4CFCC
:100F6000C82F0E94E501BC018C2FCF910C94050481
:100F70005F926F927F928F929F92AF92BF92CF9229
:100F8000DF92EF92FF920F931F93CF93DF93833003
:100F900008F061C0D1E0D80FDD0FDD0FDD0F5D2E51
:100FA000D53110F044E1542EC62F082FD8508D2E85
:100FB000912CC401880F991F9C01205E3B4F590161
:100FC000D12CC12C10E077247394D515C8F58EEF81
:100FD0008D0F8231F8F4F601E80DF91DED55FB4F48
:100FE00090819230B8F48C2F87216624639481110C
:100FF00001C0612C7601EE0CFF1C913089F4172999
:1010000037E9E30EF11CF501EE0DFF1D862D90E092
:1010100091838083770CDF5F8FEFC81AD80AD5CF12
:10102000882371F3F701E956FF4FEA0DFB1D80811C
:101030009181019729F362E08D2F0E94A901E0CFF1
:10104000011119C0F8948BB16C2F68276C7F612354
:1010500068276BB97894DF91CF911F910F91FF9022
:10106000EF90DF90CF90BF90AF909F908F907F9048
:101070006F905F9008950130D1F4C123F89495B139
:10108000812F8F73809589239C2F9F73892B85B91E
:1010900088B1612F62956695669563706095682347
:1010A000C295C695C695C370C62BC8B9D3CF1F705D
:1010B000F89498B1812F880F880F80958923C123D8
:1010C000CC0FCC0FC82BF1CF8F929F92AF92BF92D3
:1010D000CF92DF92EF92FF920F931F93CF93DF9304
:1010E000EB01843108F096C0082F10E0F801ED55AF
:1010F000FB4F9081933009F49AC0943009F08AC074
:101100008250823108F07FC0F801E05AFD4FC08064
:10111000D12C7601EE0CFF1C4B01603282E0780787
:101120000CF03EC0F701EC0DFD1DEF5EFA4F818122
:10113000A8E88A2E912C881A910887FD9394880C30
:10114000991C880C991C092C000CAA08BB088281E8
:1011500028E532E0281B310987FD3395220F331F24
:10116000220F331F032E000C440B550B281939098D
:101170004A095B09DB01653B710514F0A4EBB0E0A3
:10118000B7FF02C0B0E0A0E00E94981724EB30E067
:1011900040E050E00E946E17820E931EA41EB51E02
:1011A000F701EC0DFD1DEF5EFA4F20812C3058F554
:1011B000318188E890E0831B910937FD9395880F72
:1011C000991F880F991F881699067CF0328188E54F
:1011D00092E0831B910937FD9395880F991F880F23
:1011E000991F881699060CF4C4014FB7F89430E0A3
:1011F0000297F901EE0FFF1FE20FF31FE451FB4FBF
:10120000928381834FBF000F111FF801E954FB4FF8
:10121000D183C083DF91CF911F910F91FF90EF9009
:10122000DF90CF90BF90AF909F908F9008957B01FB
:10123000D82F833041F08BEF800F823020F087EF82
:10124000800F833058F461E08D2F0E94A901E114D2
:10125000F10461F460E08D2F0E945D01000F111F09
:10126000F801E954FB4FF182E082D4CF8FEFE8160A
:10127000F10411F461E0EFCFF801EC55FF4FE49178
:10128000E33021F148F4E130B9F0E230D1F080E808
:10129000E816F1047CF7DECFE73011F1E83041F1D8
:1012A000E430A9F780918000806280938000F09202
:1012B0008B00E0928A00D2CF84B5806884BDE7BC01
:1012C000CDCF84B5806284BDE8BCC8CF809180005A
:1012D000806880938000F0928900E0928800BECF01
:1012E0008091B00080688093B000E092B300B6CFE8
:1012F0008091B00080628093B000E092B400AECFE5
:101300009EEF980F923180F4E82FF0E0DF01AD55A9
:10131000BB4F9C91913041F4EE0FFF1FE954FB4FFE
:10132000608371830C945D010895FF920F931F9366
:10133000CF93DF9300D0CDB7DEB7082F10E0F801D0
:10134000EA50FD4F9081F62EF9220C581D4F4111A5
:1013500004C0F80190819F1511F12F2D30E03A83E0
:101360002983A0916004B09161041097B1F0682FB7
:101370006F706069ED91FC9111970190F081E02D03
:10138000CD01099522E030E0AE014F5F5F4F62E092
:1013900070E080E694E00E946603F801F0820F900E
:1013A0000F90DF91CF911F910F91FF90089583309F
:1013B00040F5282F30E0F901E750FD4F6083672B9F
:1013C00001F12A503D4FF9016081811106C099B1A8
:1013D0009C7F692341E00C949509813049F493B1D5
:1013E00026B19F73F0E42F9F90011124922BF1CF2F
:1013F00026B130E035952795359527952F706223D6
:10140000E9CF0895A82FB0E0A05ABD4F9C91292F95
:1014100030E0F901EE0FFF1FE20FF31FEF5EFA4F0E
:10142000E0812E2F30E0F901EE0FFF1FE20FF31FD6
:10143000E451FB4F80818F7B808380915E02981303
:1014400008C0992319F0915090935E028FEF8C930E
:1014500008958823D9F3E0915F02EF5FE0935F0284
:10146000F0E0E15FFD4F9083F1CFFC01019000209F
:10147000E9F73197BF01681B790BAC0181E70C9448
:101480006504CF93DF93DB0190915E029C3078F589
:1014900030915F02682F70E0FB01E05AFD4F33236B
:1014A000E1F0C32FD0E0C15FDD4F888180833150F0
:1014B00030935F02808123E0829FC00111248F5E00
:1014C0009A4F1A161B0674F4141615065CF49A014A
:1014D000AD01DF91CF910C940C0790839F5F9093A7
:1014E0005E02E8CF20E639E040E252E0F2CF8DE242
:1014F00091E0DF91CF910C94350A85ED8093BC008B
:1015000080915B0390915C03A0915D03B0915E03B9
:101510000796A11DB11D23E0B695A79597958795D0
:101520002A95D1F72091BC0024FD03C010925903E5
:10153000089540915B0350915C0360915D0370914D
:101540005E03452B462B472B69F30097A105B10598
:1015500041F025E12A95F1F700000197A109B109B1
:10156000E1CF80915A030C9470059F92AF92BF9285
:10157000CF92DF92EF92FF920F931F93CF93DF935F
:10158000C82ED12CE601C05EDB4FFE01ED57FF4FA8
:1015900090819F3709F49FC0963061F49091770253
:1015A000992341F06630710529F0109277029FEF80
:1015B000909300017B01182F0EEF080F023108F500
:1015C00064307105F1F0F601E05AFD4F80818C30F6
:1015D000C0F490E0FC01EE0FFF1FE80FF91FEF5E73
:1015E000FA4FE0818E2F90E0FC01EE0FFF1FE80F15
:1015F000F91FE451FB4F808186FF03C0812F0E94B9
:10160000020A52EF952E910E85E0891558F061E09F
:1016100070E032E0E316F10411F070E060E0892D33
:101620000E948B070231C8F4E12FE695E695E69516
:10163000F0E0EA50FD4F2081312F377081E090E0DB
:1016400001C0880F3A95EAF7E114F10421F03BE07C
:10165000E316F10401F5822B80835601AA0CBB1C12
:10166000F501E954FB4F118210828CE0E816F10479
:1016700008F0CBC0F701E15CF44F0C94DD175F0B71
:101680008C0B4E0BA30BC20B050CF90B050C050CB8
:10169000050C6B0B770B80958223DECF35E0391577
:1016A000D0F0023120F460E0812F0E94A901CD57D3
:1016B000DF4F88818F3779F082E088830CC0023158
:1016C00050F460E0812F0E94A901CD57DF4F88813F
:1016D0008F3709F01882DF91CF911F910F91FF9002
:1016E000EF90DF90CF90BF90AF909F900895023120
:1016F00090F762E0812F0E94A901CD57DF4F8881CA
:101700008F3711F08BE08883F501E954FB4F81E0BE
:1017100090E091838083DFCF0231E8F6FE01ED5740
:10172000FF4F8081833021F460E0812F0E945D01B2
:1017300061E0812F0E94A901CD57DF4F88818F374B
:1017400051F281E0BACF133049F08BEF810F823034
:1017500028F087EF810F833008F0BDCF61E0812F43
:101760000E94A90161E0812F0E94A90160E0812F00
:101770000E945D01CD57DF4F88818F3709F4ABCFD1
:1017800083E09BCF023108F0A6CFCD57DF4F888191
:101790008F3711F084E08883F601E05AFD4F808195
:1017A0008F3FA9F090E0FC01EE0FFF1FE80FF91F3B
:1017B000EF5EFA4FE0818E2F90E0FC01EE0FFF1FED
:1017C000E80FF91FE451FB4F808186FD84CF4FEF76
:1017D0005FEF6FEF7FEF812FDF91CF911F910F911F
:1017E000FF90EF90DF90CF90BF90AF909F900C94C0
:1017F000410A1251123008F06ECFCD57DF4F888169
:101800008F3709F468CF86E058CF81E491E0DF910B
:10181000CF911F910F91FF90EF90DF90CF90BF90ED
:10182000AF909F900C94350A0F931F93CF93DF9343
:1018300081E08093780280917702882329F01092CA
:1018400077028FEF809300011092F9021092F60256
:10185000109274021092FA021092F702109275021E
:101860001092FB021092F8021092760200E612E04B
:10187000C0E0DFEF82EF8C0F62E070E0863030F086
:101880008EEF8C0F823128F461E070E08C2F0E9483
:10189000B50AF801D1938F01CF5FC43159F7109287
:1018A00025031092240310925F0210925E021092A0
:1018B0007802DF91CF911F910F9108954F925F921F
:1018C0006F927F928F929F92AF92BF92FF920F93EF
:1018D0001F93CF93DF93F82E8B01D42FC22F6F3F2E
:1018E000760709F48EC081E080935F03F092810354
:1018F000109260031092820380EE94E00E94DA0658
:101900008C2F0E94910580915C0290915D02833042
:10191000910528F0880F991F04970197F1F70E940D
:10192000FA014B015C018091590381116CC0CD2FEC
:10193000D13208F0C0E281E08093590380935803CC
:101940009FEF90935703109256039C0F909355036B
:1019500080933403909134038F2D880F892B8093CB
:10196000340380913303813009F0A1C01092330316
:101970000E94FA014B015C01809134038093BB000B
:1019800080915B0390915C03A0915D03B0915E0335
:10199000892B8A2B8B2BA1F00E94FA0140905B03CC
:1019A00050905C0360905D0370905E036819790944
:1019B0008A099B09461657066806790608F444C04A
:1019C0008091BC0083FDD8CF85EC8093BC000E9441
:1019D000FA014B015C0180915903813009F469C01F
:1019E000809156038C1710F4C0915603E5E3F3E0A1
:1019F000AAE7B2E080E08C1761F191919D938F5F2F
:101A0000FACF00E08CCF80915B0390915C03A091B2
:101A10005D03B0915E03892B8A2B8B2B09F483CF56
:101A20000E94FA0140905B0350905C0360905D035C
:101A300070905E03681979098A099B094616570652
:101A40006806790608F06FCF80915A030E947005EE
:101A5000C0E010929B02C0939A022D2F30E08C2F91
:101A600090E0281739070CF046C082E591E00E940B
:101A7000350AF0921C0200931D020CE112E0AD2E1B
:101A8000B12CC8018C5192408A159B050CF041C0C5
:101A90000F5F1F4F90919A0280919B029817C9F196
:101AA00080EE94E00E949306F8018183EACF85EEF0
:101AB0008CCF80915B0390915C03A0915D03B0910A
:101AC0005E03892B8A2B8B2B09F485CF0E94FA01A8
:101AD00040905B0350905C0360905D0370905E03E8
:101AE000681979098A099B09461657066806790616
:101AF00008F071CFA9CF821793070CF0BACF8FE609
:101B000091E00E94350AD0919A0280919B02D81BE5
:101B1000B0CFDE5F6D2F70E04CE152E087E7DF91E0
:101B2000CF911F910F91FF90BF90AF909F908F909A
:101B30007F906F905F904F900C946504EF92FF92AE
:101B40000F931F93CF93DF938956823108F033C0F0
:101B5000EA01162FE82FF0E0E055F24F0C94DD1764
:101B6000F60FDB0D5D0FDB0DB50FDB0D3B0FDF0E51
:101B7000DB0DDB0DDB0DDB0DDB0DC20DDB0DA30E75
:101B8000DB0D250F998195FF0AC08BE891E0DF916D
:101B9000CF911F910F91FF90EF900C94350A88819F
:101BA00031E096FB222720F9232798719830D1F154
:101BB00048F49923A9F0DF91CF911F910F91FF90E5
:101BC000EF900895903109F44CC09831A1F720911D
:101BD000000112160CF472C08FEF80930001EBCF5E
:101BE00030935F038093810310926003109282030D
:101BF00002E0011778F4FE01E00FF11D61816795A5
:101C0000662767958081680F80EE94E00E94DA066F
:101C10000E5FEFCF81E00E94910588E890E0019788
:101C2000F1F7C9CF9A814B816630A1F430E8439F28
:101C3000B0011124690F711D4D81479544274795C7
:101C40009C81490FDF91CF911F910F91FF90EF90F1
:101C50000C945E0C479544274795490F6FEF7FEF33
:101C6000F1CFE0910001E7301CF08BEA91E08FCFDB
:101C70003A819B816630D9F460E8969FA0011124D7
:101C8000430F511D9D819795992797953C81930FFF
:101C9000EF5FE093000135E0E302F0011124E4502E
:101CA000FD4F8083528341839383248384CF979510
:101CB00099279795930F4FEF5FEFEACF90E0622F50
:101CC000022E000C770B35E0492F50E064177507A2
:101CD00064F0349FF001359FF00D1124E450FD4F66
:101CE0004081481719F09F5FEFCF90E085E0492FC2
:101CF00050E0641775071CF19830F8F4FA0131963A
:101D00008E9FD0018F9FB00D1124A450BD4F3C91E8
:101D1000849FF001859FF00D1124E450FD4F308326
:101D200011964D915C9112975283418313963C9189
:101D30001397338314963C9134839F5FD8CF2150FF
:101D40002093000138CF623078F0898160E8869F67
:101D5000900111248881820F932F911D009721F00B
:101D600090935D0280935C0280917702811123CF72
:101D7000C0E08EEE8C0F823028F466E070E08C2F8D
:101D80000E94B50ACF5FC431A1F781E0809377024A
:101D900010929B0210929A0210926003109282039A
:101DA0000E94520581E896E09093BE028093BD02A6
:101DB00082E896E09093C2028093C102FCCE653027
:101DC00008F4F9CE18818EEF810F823108F0F3CE3E
:101DD0000981EA80FB80CC81E12FF0E0E05AFD4FE1
:101DE00080818C30C0F490E0FC01EE0FFF1FE80F03
:101DF000F91FEF5EFA4FE0818E2F90E0FC01EE0FAD
:101E0000FF1FE80FF91FE451FB4F808186FF03C0DD
:101E1000812F0E94020A80E8C89FA00111244F0D63
:101E2000511D90E8E99EB0011124600F711D812FB2
:101E30000E94410A64E070E0812FDF91CF911F91F1
:101E40000F91FF90EF900C94B50A623008F4B3CE76
:101E50008981E0E88E9F900111248881820F932F61
:101E6000911D009729F09093020180930101A3CE68
:101E700081E090E0F8CF623008F49DCE698170E097
:101E8000123091F08A81F0E88F9FC0011124682BF5
:101E9000792B133049F08B8190E090E4899F902D4D
:101EA00088271124682B792B8881DF91CF911F918E
:101EB0000F91FF90EF900C94640880EF0E94010155
:101EC0008CE60E940101CEEF84EF8C0F863020F566
:101ED00082E00E9401018AE00E9401018DEF8C0FD7
:101EE0008230E0F089EF8C0F8330F0F417C0C231FC
:101EF00058F780E00E94010181E00E9401018BE01F
:101F00000E94010181E00E94010181E00E94010123
:101F100081E00E940101D8CFC13001F783E00E9427
:101F2000010188E00E940101C23130F484E00E9486
:101F300001018EE00E94010180EF8C0F823030F4AD
:101F400086E00E94010181E00E9401018FE70E946A
:101F50000101CF5FC23159F687EFDF91CF911F9119
:101F60000F91FF90EF900C940101662309F423CEAA
:101F7000C88180EF0E9401018EE60E9401018C2F32
:101F80000E940101C43140F7D0E0FE01ED55FB4F46
:101F900080810E940101CC0FDD1F8E0109541B4F6F
:101FA000F80180818F770E940101F8018081918181
:101FB0009C012078232B39F0880F892F881F990BDB
:101FC0008F770E940101C954DB4F888199819C0160
:101FD0002227307C232B09F4BFCF990F880B990F50
:101FE000982F881F8F770E940101B6CF80EF0E9443
:101FF00001018AE60E940101C2EF8FE7C63008F4B2
:102000008C2F0E940101CF5FC630B9F7A5CF1F9278
:102010000F920FB60F9211242F933F938F939F939C
:10202000AF93BF9380912B0390912C03A0912D032C
:10203000B0912E0330912A0326E0230F2D3758F557
:102040000296A11DB11D20932A0380932B03909328
:102050002C03A0932D03B0932E0380912F03909116
:102060003003A0913103B09132030196A11DB11D3F
:1020700080932F0390933003A0933103B0933203E6
:10208000BF91AF919F918F913F912F910F900FBE74
:102090000F901F90189529E8230F0396A11DB11DDD
:1020A000D2CF1F920F920FB60F9211242F933F930E
:1020B0004F935F936F937F938F939F93AF93BF9350
:1020C000EF93FF9383E893E00E94D702FF91EF9193
:1020D000BF91AF919F918F917F916F915F914F9140
:1020E0003F912F910F900FBE0F901F9018951F9248
:1020F0000F920FB60F9211242F938F939F93EF930C
:10210000FF93E0919303F09194038081E091990310
:10211000F0919A0382FD1BC0908180919C038F5F98
:102120008F7320919D03821741F0E0919C03F0E0B2
:10213000ED57FC4F958F80939C03FF91EF919F91FA
:102140008F912F910F900FBE0F901F901895808147
:10215000F4CF1F920F920FB60F9211240F900FBE63
:102160000F901F9018951F920F920FB60F92112487
:102170002F933F934F935F936F937F938F939F938F
:10218000AF93BF93EF93FF938091B900887F803620
:1021900009F44AC0F0F5883209F4A7C018F5803177
:1021A00009F49BC0B8F4882309F4F9C0883009F415
:1021B00094C0FF91EF91BF91AF919F918F917F91CB
:1021C0006F915F914F913F912F910F900FBE0F90A4
:1021D0001F901895883109F488C0803251F7809398
:1021E000570314C0803409F49DC040F48033B9F320
:1021F0008833F9F68093570385ECB0C0803509F435
:1022000085C0883509F496C0883499F60E947D0A05
:10221000D0CF883909F48CC038F5883729F050F4CC
:10222000883611F0803729F683E0809359031092A5
:10223000E30257C0883809F47BC0803919F0803830
:1022400009F0B7CF8091E302803208F071C0E091CD
:10225000E30281E08E0F8093E3028091BB00F0E007
:10226000ED53FD4F80833DC0803B39F0E0F4803A70
:1022700009F479C0883A09F09CCF84E0809359032F
:102280001092C0021092BF02E091BD02F091BE0216
:1022900009958091BF0281110FC081E08093BF0238
:1022A00010929D0209C0803C09F4A6CF883C09F435
:1022B000A3CF883B09F07DCFE091C00281E08E0F73
:1022C0008093C002F0E0E356FD4F80818093BB0015
:1022D0009091C0028091BF0229C080913403809305
:1022E000BB0085EC8093BC0064CF90915603809135
:1022F0005503981758F5E091560381E08E0F8093AF
:102300005603F0E0EB5CFC4F8081E9CFE09156038F
:1023100081E08E0F809356038091BB00F0E0EB5C70
:10232000FC4F808390915603809155039817C8F213
:1023300085E8D8CFE091560381E08E0F8093560355
:102340008091BB00F0E0EB5CFC4F808380915803F0
:1023500081115CCF81E08093330384EA8093BC00D9
:102360001092590326CF85EC8093BC00109259033C
:102370008091E302803230F4E091E302F0E0ED532B
:10238000FD4F10826091E30270E0E091C102F09194
:10239000C20283EC92E009951092E3020ACF1092F8
:1023A000570334CF1F920F920FB60F9211242F9321
:1023B0003F934F935F936F937F938F939F93AF93CD
:1023C000BF93CF93DF93EF93FF9380917902C091F6
:1023D0001005D0E087FF24C0109285001092840081
:1023E000809179028F5F8093790280917902082E23
:1023F000000C990B8C179D0724F4809179028C3086
:10240000C4F18091840090918500049680329E44AE
:1024100008F47AC08091840090918500049676C07B
:1024200080917902082E000C990B8C179D07C4F639
:10243000E09179028E2FEE0F990BFC01EE0FFF1F3A
:10244000E80FF91FE451FB4F808186FFC9CFE0916F
:1024500079028E2FEE0F990BFC01EE0FFF1FE80F94
:10246000F91FE451FB4F808160E08F730E945D0192
:10247000B7CF2091840030918500E09179028E2FB2
:10248000EE0F990BFC01EE0FFF1FE80FF91FE4514F
:10249000FB4F81819281820F931F909389008093DB
:1024A0008800E09179028E2FEE0F990BFC01EE0F60
:1024B000FF1FE80FF91FE451FB4F808186FF11C019
:1024C000E09179028E2FEE0F990BFC01EE0FFF1FAA
:1024D000E80FF91FE451FB4F808161E08F730E9488
:1024E0005D01FF91EF91DF91CF91BF91AF919F91EE
:1024F0008F917F916F915F914F913F912F910F90AD
:102500000FBE0F901F90189580E29EE49093890073
:10251000809388008FEF80937902E3CF1092860337
:102520001092850348EE53E060E070E0409387032B
:10253000509388036093890370938A038DE091E040
:10254000909384038093830385EC90E090939003B1
:1025500080938F0384EC90E0909392038093910397
:1025600080EC90E0909394038093930381EC90E04F
:10257000909396038093950382EC90E09093980358
:102580008093970386EC90E090939A03809399034D
:1025900010929C0310929D0310929E0310929F0331
:1025A00080E294E0109261041092600490936404BD
:1025B0008093630420E430E0309366042093650444
:1025C000109267041092680410926A0410926904D1
:1025D00010926B0410926D0410926C0410926F04B0
:1025E00010926E0410927104109270041092730491
:1025F0001092720410927504109274041092770471
:1026000010927604109279041092780410927F044C
:1026100010927E0410928104109280041092830420
:1026200010928204109285041092840410929304F4
:1026300010929204109262041092A0041092A204CC
:102640001092A1041092DF0427E830E03093870451
:102650002093860421E930E0309389042093880494
:102660002BE930E030938B0420938A0425EA30E094
:1026700030938D0420938C042FEA30E030938F0444
:1026800020938E0429EB30E0309391042093900442
:1026900023EC30E0309395042093940424EC30E054
:1026A000309397042093960426E235E03093990402
:1026B0002093980490937B0480937A0422E532E07F
:1026C00030939B0420939A0490937D0480937C0420
:1026D0008FEC90E090939D0480939C041092E3040F
:1026E0001092E2044093E4045093E5046093E604FE
:1026F0007093E7048FE191E09093E1048093E0040C
:10270000E1E1F5E02FEF4CED55E0809110058C30C4
:10271000B8F491E0980F90931005808390E0DC016D
:10272000AA0FBB1FA80FB91FA451BB4F12965C93F1
:102730004E931197339685E0E533F80731F7089506
:102740002083F8CF789484B5826084BD84B581609D
:1027500084BD85B5826085BD85B5816085BD80916C
:102760006E00816080936E001092810080918100E4
:1027700082608093810080918100816080938100DC
:10278000809180008160809380008091B10084609E
:102790008093B1008091B00081608093B0008091FF
:1027A0007A00846080937A0080917A0082608093BE
:1027B0007A0080917A008E7F80937A0080917A00EF
:1027C000806880937A001092C10085E18093A00414
:1027D0008091A1049091A2040E947F18C091A0044E
:1027E000D0E0CE0101960E94E3179093A20480935B
:1027F000A104FC01EC0FFD1F108212E0DC011C9310
:1028000025E011962C93AE01425051096CEF71E016
:1028100002960E94081984E698E09093F102809352
:10282000F00288EB97E09093EF028093EE028BE842
:1028300097E09093ED028093EC0287ED99E09093FE
:10284000EB028093EA0285EB9AE09093E902809391
:10285000E80280E899E09093E7028093E6028EE92F
:102860009DE09093F3028093F20284E19CE09093C8
:10287000F5028093F402E0919303F09194031083A6
:10288000E0918F03F09190031082E0919103F09119
:10289000920380E1808310929B03E0919703F09173
:1028A000980386E08083E0919503F0919603808100
:1028B00080618083E0919503F09196038081886028
:1028C0008083E0919503F0919603808180688083F6
:1028D000E0919503F091960380818F7D80838091B4
:1028E000DF0481114FC061E08DE00E94A90162ED1B
:1028F00070E080E090E00E941F0261E08DE00E94A5
:102900005D0168E270E080E090E00E941F0260E0FC
:102910008DE00E945D0162ED70E080E090E00E9439
:102920001F0261E08DE00E945D0168E270E080E0DE
:1029300090E00E941F0260E08DE00E945D016AEF5E
:1029400070E080E090E00E941F02C5E062ED70E060
:1029500080E090E00E941F0261E08DE00E945D0136
:1029600068E270E080E090E00E941F0260E08DE08D
:102970000E945D01C15051F76DE770E080E090E08A
:102980000E941F0283E893E090939F0480939E042B
:10299000909361048093600480E694E00E94D700E5
:1029A00080E294E00E94B2040E94140C25E0D22E32
:1029B000C0E0D0E0CC24C39402E010E0EE24E39425
:1029C000F12C8091F902882349F069B18091F602D7
:1029D00068236C7F40E080E00E9495098091FA02B4
:1029E000882379F063B186B16F73B0E48B9FC00127
:1029F0001124682B8091F702682340E081E00E9457
:102A000095098091FB02882359F066B18091F80204
:102A10008F7066956695682340E082E00E94950974
:102A200080919E0490919F04DC01ED91FC910084C3
:102A3000F185E02D0995892B09F4CEC180919E0482
:102A400090919F04DC01ED91FC910284F385E02DCF
:102A500009959C018F3F980719F3982F80916B047B
:102A6000882309F492C0973F09F07EC010926B044E
:102A7000A0916304B09164046C916137C1F169372E
:102A800009F05CC0E0919804F0919904309741F20C
:102A900080916C0490916D048330910560F430E076
:102AA00020E050E040E070E060E080917A04909196
:102AB0007B040995B5CFBD016D5F7F4F03970E94E1
:102AC0003E01BC016D5F7F4F80E00E940E01E091EE
:102AD0006304F09164049F012D5F3F4F428150E0F9
:102AE000618170E0E0919804F0919904DECF8091CB
:102AF000940490919504892B09F492CFBD016F5FE6
:102B00007F4F80916C0490916D0401970E943E016B
:102B1000BC016F5F7F4F80E00E940E0160916304F3
:102B2000709164046F5F7F4FE0919404F09195047D
:102B30008091800490918104099572CFE091960470
:102B4000F0919704309709F46BCF9D012F5F3F4FB1
:102B500040916C0450916D04415051098091820460
:102B60009091830409955CCF60916C0470916D0421
:102B7000822F0E940E0180916C0490916D04019649
:102B800090936D0480936C044BCF609169047091B5
:102B90006A046115710509F4B1C027FDAFC0615029
:102BA000710970936A0460936904822F0E940E0178
:102BB0008091690490916A04892B09F031CF80914A
:102BC0006704882309F42CCF803D09F483C040F4C6
:102BD000803949F1803C09F469C01092670420CF24
:102BE000843FE1F1853F09F44DC0803EB1F7E091AB
:102BF0008604F0918704309781F3A0916304B0912B
:102C000064044C9120E8429FC001112411964C911C
:102C1000480F592F511D6091680480916E04909166
:102C20006F040995DACFE0918804F0918904309718
:102C3000A1F2A0916304B09164044C9120E8429FFA
:102C4000C001112411964C91480F592F511D6091CC
:102C500068048091700490917104E3CFE0918E0438
:102C6000F0918F04309709F4B8CFA0916304B0912C
:102C700064044C9150E011966C918091760490918F
:102C80007704CFCFE0919004F0919104309709F44C
:102C9000A4CFA0916304B09164044C9150E01196CC
:102CA0006C918091780490917904BBCFE0918A0473
:102CB000F0918B04309709F490CFA0916304B09108
:102CC00064044C9150E0609168048091720490918A
:102CD0007304A7CFE0918C04F0918D04309709F430
:102CE0007CCFA0916304B09164044C9150E060915A
:102CF0006804809174049091750493CF903F30F4F0
:102D0000822F8F7080936804922F907F903FF1F113
:102D100090F4903CB1F150F4903909F081CE1093C9
:102D20006A0400936904909367047ACE903D49F158
:102D3000903EA9F375CE993F09F442C028F48CE087
:102D4000890F823060F36CCE9F3F09F069CE1092FC
:102D50006A0410926904109267041092680490E06B
:102D600080E0209165043091660482179307A8F4EF
:102D7000E0916304F0916404E80FF91F108201965A
:102D8000F0CFF0926A04E0926904CDCFC0926B0458
:102D900010926D0410926C0443CE10926B0410924A
:102DA0006D0410926C04E0919C04F0919D0480915C
:102DB000840490918504309709F432CE099530CE81
:102DC000E0919A04F0919B04309709F429CE809108
:102DD0007C0490917D04F2CF8FB7F89480902B0300
:102DE00090902C03A0902D03B0902E038FBF809164
:102DF000260390912703A0912803B09129034091C5
:102E000001015091020170E060E0881A990AAA0A53
:102E1000BB0A481559056A057B0508F054C0840FA4
:102E2000951FA61FB71F8093260390932703A09397
:102E30002803B093290380E2882E84E0982E92EF35
:102E4000B92E85E08B15C8F0F401ED57FF4F808156
:102E5000823099F480912403909125030B2C02C0B9
:102E6000959587950A94E2F780FF07C08B2D0E9405
:102E7000E501BC018B2D0E940504B394AFEF8A1AC3
:102E80009A0AB6E0BB12DDCF8091000187FD1BC01E
:102E9000B12C2B2D30E080910001082E000C990BF5
:102EA0008217930784F0D29EF001D39EF00D112477
:102EB000E450FD4F618172812481438180810E94B1
:102EC0005E0CB394E6CF209709F47BCD0E94C30239
:102ED000882309F476CD0E94000073CD052E97FB60
:102EE0001EF400940E94851757FD07D00E94A0177A
:102EF00007FC03D04EF40C948517509540953095FF
:102F000021953F4F4F4F5F4F089590958095709555
:102F100061957F4F8F4F9F4F08950E94C217A59FC5
:102F2000900DB49F900DA49F800D911D11240895C4
:102F3000B7FF0C948D170E948D17821B930B089579
:102F4000A1E21A2EAA1BBB1BFD010DC0AA1FBB1FAD
:102F5000EE1FFF1FA217B307E407F50720F0A21B1F
:102F6000B30BE40BF50B661F771F881F991F1A948C
:102F700069F760957095809590959B01AC01BD01B6
:102F8000CF010895A29FB001B39FC001A39F700D10
:102F9000811D1124911DB29F700D811D1124911D61
:102FA0000895991B79E004C0991F961708F0961BA5
:102FB000881F7A95C9F780950895EE0FFF1F059039
:102FC000F491E02D09940F931F93CF93DF938230F8
:102FD000910510F482E090E0E0913705F09138051A
:102FE00030E020E0B0E0A0E0309799F42115310501
:102FF00009F44AC0281B390B24303105D8F58A81E1
:103000009B816115710589F1FB0193838283FE0128
:1030100011C0408151810281138148175907E0F0A6
:103020004817590799F4109761F012960C9312976C
:1030300013961C933296CF01DF91CF911F910F9180
:1030400008950093370510933805F4CF2115310505
:1030500051F04217530738F0A901DB019A01BD0175
:10306000DF01F801C1CFEF01F9CF909338058093CC
:103070003705CDCFFE01E20FF31F819391932250CC
:10308000310939832883D7CF209135053091360512
:10309000232B41F420910501309106013093360530
:1030A000209335052091030130910401211531054C
:1030B00041F42DB73EB74091070150910801241B00
:1030C000350BE0913505F0913605E217F307A0F4D2
:1030D0002E1B3F0B2817390778F0AC014E5F5F4F6E
:1030E0002417350748F04E0F5F1F50933605409365
:1030F0003505819391939FCFF0E0E0E09CCFCF9393
:10310000DF930097E9F0FC01329713821282A091BD
:103110003705B0913805ED0130E020E01097A1F4BB
:1031200020813181820F931F209135053091360522
:103130002817390709F061C0F0933605E09335058B
:10314000DF91CF910895EA01CE17DF07E8F54A81B4
:103150005B819E0141155105B1F7E901FB83EA83CB
:1031600049915991C40FD51FEC17FD0761F4808177
:1031700091810296840F951FE9019983888382814A
:1031800093819B838A83F0E0E0E012968D919C917D
:1031900013970097B9F52D913C911197CD010296A7
:1031A000820F931F20913505309136052817390776
:1031B00039F6309751F51092380510923705B093D3
:1031C0003605A0933505BCCFD383C283408151819E
:1031D000840F951FC817D90761F44E5F5F4F888130
:1031E0009981480F591F518340838A819B81938322
:1031F00082832115310509F0B0CFF0933805E093B3
:1032000037059ECFFD01DC01C0CF13821282D7CFDC
:10321000FB01DC014150504048F001900D9200202C
:10322000C9F701C01D9241505040E0F70895F8944D
:02323000FFCFCE
:10323200FF130000003905800000000000F9025968
:103242000286024603B7029502A90200000000DAD4
:1032520006AD0609078306A606930684064D617825
:1032620020736572766F732061747461636865643C
:1032720000556E6B6E6F776E2070696E206D6F6495
:1032820065004932433A20546F6F206D616E792098
:103292006279746573207265636569766564004955
:1032A20032433A20546F6F206665772062797465E5
:1032B200732072656365697665640031302D6269D9
:1032C200742061646472657373696E67206E6F74D3
:1032D20020737570706F7274656400746F6F206D07
:1032E200616E792071756572696573002F686F6D03
:1032F200652F72756E6E65722F41726475696E6F9D
:103302002F6C69627261726965732F4669726D61B1
:1033120074612F6578616D706C65732F5374616E83
:10332200646172644669726D6174612F5374616E77
:10333200646172644669726D6174612E696E6F00B8
:00000001FF
