:100000000C945D000C9485000C9485000C94AD104C
:100010000C94AD100C94AD100C9485000C948500DC
:100020000C9485000C9485000C9485000C94D611DA
:100030000C9485000C9485000C9485000C9485002C
:100040000C940B100C9485000C947B100C945510A0
:100050000C9485000C9485000C9485000C9485000C
:100060000C94B7100C9485000000000024002700B9
:100070002A0000000000250028002B0004040404CE
:100080000404040402020202020203030303030342
:10009000010204081020408001020408102001021F
:1000A00004081020000000080002010000030407FB
:1000B0000000000000000000921211241FBECFEFCC
:1000C000D8E0DEBFCDBF12E0A0E0B1E0E4E4F2E3AF
:1000D00002C005900D92AE31B107D9F725E0AEE12F
:1000E000B2E001C01D92AF34B207E1F710E0CDE5F8
:1000F000D0E004C02197FE010E94E617CC35D1075D
:10010000C9F70E94A6130C9420190C940000862FA6
:10011000E0910003F0910103309711F0BA010994C6
:100120000895862FE091FE02F091FF02309711F0C2
:10013000BA0109940895862FE091FC02F091FD0226
:10014000309711F0BA0109940895862FE091FA02D0
:10015000F091FB02309711F0BA0109940895862FAF
:10016000E091F802F091F902309711F0BA01099488
:100170000895862FE091F602F091F702309711F082
:10018000BA01099408950895862F642FE09102031F
:10019000F0910303309711F0A90109940895E091BB
:1001A0000403F0910503309709F009940895CF9363
:1001B000DF93FC01A081B181109701F1EC01ED9179
:1001C000FC9111970190F081E02D69EFCD01099527
:1001D00088819981DC01ED91FC910190F081E02D05
:1001E00062E0099588819981DC01ED91FC91019093
:1001F000F081E02D65E0DF91CF910994DF91CF91FF
:100200000895A091AE04B091AF04ED91FC911197C7
:100210000190F081E02D682FCD0109941F93CF93B9
:10022000DF93182FEB018091750490917604681785
:10023000790760F48091730490917404C80FD91FFA
:10024000188380E0DF91CF911F910895E091A2047F
:10025000F091A304309711F481E0F4CF81E0809312
:10026000720480918E0490918F0409958091750499
:1002700090917604C817D90778F7DCCFCF93DF9336
:10028000EC01FB0130E020E0C901880F991F8C17B9
:100290009D0778F44081DB014D93BD011197918159
:1002A000979599279795942B9C932F5F3F4F329664
:1002B000EBCFC901DF91CF91089590E0FC01EC559F
:1002C000FF4F2491FC01E057FF4F3491FC01E458AB
:1002D000FF4FE491EE23C9F0222339F0233001F1DE
:1002E000A8F4213019F1223029F1F0E0EE0FFF1FC0
:1002F000EE58FF4FA591B4918FB7F894EC9161112E
:1003000026C030953E233C938FBF08952730A9F037
:100310002830C9F0243049F7809180008F7D03C0D8
:10032000809180008F7780938000DFCF84B58F77B6
:1003300084BDDBCF84B58F7DFBCF8091B0008F77FC
:100340008093B000D2CF8091B0008F7DF9CF3E2B4B
:10035000DACFCF93DF9390E0FC01E057FF4F249179
:1003600084589F4FFC0184918823C9F090E0880F46
:10037000991FFC01E859FF4FA591B491FC01EE587B
:10038000FF4FC591D49161110DC09FB7F8948C9126
:10039000209582238C938881282328839FBFDF9117
:1003A000CF910895623051F49FB7F8943C91822F19
:1003B000809583238C93E8812E2BEFCF8FB7F89411
:1003C000EC912E2B2C938FBFEACF8E3008F08E50FD
:1003D0008770806480937C0080917A008064809331
:1003E0007A0080917A0086FDFCCF80917800909110
:1003F000790008953FB7F89480913F0390914003AE
:10040000A0914103B091420326B5A89B05C02F3FA0
:1004100019F00196A11DB11D3FBFBA2FA92F982F2A
:100420008827BC01CD01620F711D811D911D42E025
:10043000660F771F881F991F4A95D1F708958F92ED
:100440009F92AF92BF92CF92DF92EF92FF926B0199
:100450007C010E94FA014B015C01C114D104E1044A
:10046000F104B9F00E94FA01681979098A099B0917
:10047000683E73408105910580F321E0C21AD108DE
:10048000E108F10888EE880E83E0981EA11CB11CDB
:10049000E4CFFF90EF90DF90CF90BF90AF909F9010
:1004A0008F900895009721F0805C9F4F0C94D700A7
:1004B0000895AF92BF92CF92DF92EF92FF920F9387
:1004C0001F93CF93DF936C017B018B01040F151FEA
:1004D000EB015E01AE18BF08C017D10759F0699152
:1004E000D601ED91FC910190F081E02DC6010995B6
:1004F000892B79F7C501DF91CF911F910F91FF9063
:10050000EF90DF90CF90BF90AF900895FC01538D96
:10051000448D252F30E0842F90E0821B930B5417DD
:1005200010F0CF96089501970895FC01918D828D6A
:10053000981761F0A28DAE0FBF2FB11D5D968C9103
:10054000928D9F5F9F73928F90E008958FEF9FEF42
:100550000895FC01918D828D981731F0828DE80FFE
:10056000F11D858D90E008958FEF9FEF0895FC01B8
:10057000918D228D892F90E0805C9F4F821B910985
:100580008F739927089583E993E00E94B70221E0D1
:10059000892B09F420E0822F089580E090E0892BD8
:1005A00029F00E94C30281110C9400000895FC01FF
:1005B000A48DA80FB92FB11DA35ABF4F2C91848DC4
:1005C00090E001968F739927848FA689B7892C9321
:1005D000A089B1898C91837080648C93938D848D74
:1005E000981306C00288F389E02D80818F7D808377
:1005F0000895EF92FF920F931F93CF93DF93EC0137
:1006000081E0888F9B8D8C8D98131AC0E889F989B9
:10061000808185FF15C09FB7F894EE89FF896083BC
:10062000E889F98980818370806480839FBF81E03D
:1006300090E0DF91CF911F910F91FF90EF9008957F
:10064000F62E0B8D10E00F5F1F4F0F731127E02E5A
:100650008C8D8E110CC00FB607FCFACFE889F98992
:10066000808185FFF5CFCE010E94D702F1CFEB8DBF
:10067000EC0FFD2FF11DE35AFF4FF0829FB7F89466
:100680000B8FEA89FB8980818062CFCFCF93DF9384
:10069000EC01888D8823B9F0AA89BB89E889F9899A
:1006A0008C9185FD03C0808186FD0DC00FB607FCCF
:1006B000F7CF8C9185FFF2CF808185FFEDCFCE0102
:1006C0000E94D702E9CFDF91CF9108955F926F9298
:1006D0007F928F929F92AF92BF92CF92DF92EF92D2
:1006E000FF920F931F93CF93DF935C016901DA01AF
:1006F0005C90232B19F4CC24CA94DC2C8A013A0197
:10070000660E771ED0E0C0E0F12CE12C87E0882E49
:10071000912CF50180819181D8016C910C2E01C042
:10072000660F0A94EAF765296F77DC01ED91FC9179
:100730000190F081E02D0995BFEFEB1AFB0AF8015B
:10074000608170E0C4018C1B9D0B02C0759567959C
:100750008A95E2F7562E2196C730D10558F1CE146E
:10076000DF0441F1D5018D919C91652D6F77DC01FE
:10077000ED91FC910190F081E02D0995BFEFEB1A0E
:10078000FB0A551C5524551C2797E6CFEC14FD0495
:1007900008F4BFCFDF91CF911F910F91FF90EF90A1
:1007A000DF90CF90BF90AF909F908F907F906F9091
:1007B0005F9008950F5F1F4F6016710639F72097FD
:1007C00049F3EC14FD0430F7F5018081918161E07B
:1007D00070E001C0660FCA95EAF761506521DC013F
:1007E000ED91FC910190F081E02DDF91CF911F916F
:1007F0000F91FF90EF90DF90CF90BF90AF909F90C0
:100800008F907F906F905F9009941F93CF93DF93A9
:1008100000D0CDB7DEB7182F7A836983809170043A
:10082000909171040097C9F0DC01ED91FC91019069
:10083000F081E02D1031B8F461157044A0F4612FFF
:10084000606E099522E030E0AE014F5F5F4F62E0DD
:1008500070E080E794E00E9466030F900F90DF91B4
:10086000CF911F91089560EF099580917004909148
:100870007104DC01ED91FC910190F081E02D6FE6B7
:1008800009958091700490917104DC01ED91FC91C7
:100890000190F081E02D612F099522E030E0AE015A
:1008A0004F5F5F4F62E070E080E794E00E94660374
:1008B0008091700490917104DC01ED91FC910190A4
:1008C000F081E02D67EF0995C8CFEF92FF920F936B
:1008D0001F93CF93DF93C82F809170049091710480
:1008E0000097C9F17A018B01DC01ED91FC91019037
:1008F000F081E02D60EF0995809170049091710472
:10090000DC01ED91FC910190F081E02D6C2F0995B7
:10091000E7010E0D1F1DC017D10759F030E020E090
:10092000AE0161E070E080E794E00E9466032196EA
:10093000F2CF8091700490917104DC01ED91FC91F3
:100940000190F081E02D67EFDF91CF911F910F9122
:10095000FF90EF900994DF91CF911F910F91FF903D
:10096000EF900895CF92DF92EF92FF920F931F9333
:10097000CF93DF93FC01E058FF4FE080EE2009F4B5
:100980005CC0EC01C05CDF4FA881B981109709F40D
:1009900054C0FC01EF57FF4FC080D180F601118198
:1009A0000081ED91FC9111970190F081E02D60EFB5
:1009B000CD01099588819981DC01ED91FC9101902F
:1009C000F081E02D69E7099588819981DC01ED913D
:1009D000FC910190F081E02D602F0995888199812B
:1009E000DC01ED91FC910190F081E02D612F0995E2
:1009F000F12C01E010E00F5F1F4FE016F10659F0F7
:100A000030E020E0A601400F511F61E070E0CE0110
:100A10000E946603F0CF88819981DC01ED91FC9101
:100A20000190F081E02D67EFDF91CF911F910F9141
:100A3000FF90EF90DF90CF900994DF91CF911F91BD
:100A40000F91FF90EF90DF90CF900895009711F0F5
:100A50000C94B20408952091CF02260F3327331F40
:100A600021323105ECF420916903FC0190E080E033
:100A7000243069F082E00895A091CF022191AC0169
:100A800043555D4FA40FB52FB11D2C9301968617CA
:100A900098F38091CF02680F6093CF0280E00895B1
:100AA00081E008951092690381E0809368031092B9
:100AB000430361E082E10E945D0161E083E10E9405
:100AC0005D01E9EBF0E080818E7F808380818D7F06
:100AD000808388E48093B80085E48093BC00089507
:100AE000CF93DF9391E09093AC028823B9F0C0914B
:100AF000B800D091BA008091BC008A7B8093BC0082
:100B000060E082E10E945D0160E083E10E945D019E
:100B10000E945205D093BA00C093B800DF91CF91E4
:100B200008958F929F92AF92BF92CF92DF92EF92F1
:100B3000FF920F931F93CF93DF93D0919203D13203
:100B400008F0D7C0182FC09191030E94FA016B01E1
:100B50007C018091690381116BC082E080936903FD
:100B6000109368038FEF8093670310926603D0930E
:100B70006503A1E7B3E0E5E4F3E080E0D81391C0BA
:100B80001092440380914403CC0FC82BC0934403BC
:100B900080914303813009F088C0109243030E9482
:100BA000FA016B017C01809144038093BB0080912A
:100BB0006B0390916C03A0916D03B0916E03892B30
:100BC0008A2B8B2BA1F00E94FA0100916B031091EC
:100BD0006C0320916D0330916E036C197D098E09B1
:100BE0009F09061717072807390708F442C08091A4
:100BF000BC0083FDD8CF85EC8093BC000E94FA0135
:100C00006B017C0180916903823009F450C08091AE
:100C100067038F3F09F46FC080916703803209F446
:100C20006CC080916703803309F469C084E026C0FA
:100C300080916B0390916C03A0916D03B0916E0352
:100C4000892B8A2B8B2B09F484CF0E94FA01809088
:100C50006B0390906C03A0906D03B0906E036C19C1
:100C60007D098E099F0986169706A806B90608F021
:100C700070CF80916A030E94700585E01092700326
:100C80001092920310926F03DF91CF911F910F91F9
:100C9000FF90EF90DF90CF90BF90AF909F908F909C
:100CA00008959D9191938F5F69CF85EEA5CF809137
:100CB0006B0390916C03A0916D03B0916E03892B2F
:100CC0008A2B8B2B09F49ECF0E94FA0100916B03B3
:100CD00010916C0320916D0330916E036C197D09A6
:100CE0008E099F09061717072807390708F08ACFCA
:100CF000C0CF81E0C3CF80E0C1CF82E0BFCF83E02F
:100D0000BDCF089508950895E091AB028091AA02A5
:100D1000E81730F4F0E0E657FD4F808190E0089549
:100D20008FEF9FEF08959091AB028091AA022FEF71
:100D30003FEF981748F4E92FF0E0E657FD4F208188
:100D400030E09F5F9093AB02C90108958091AA02A1
:100D50009091AB02891B990B0895CF92DF92EF928D
:100D6000FF920F931F93CF93DF937C01CB018A01F6
:100D700020916F03222389F0EB016B01C40ED51E75
:100D8000CC15DD0569F06991D701ED91FC910190D9
:100D9000F081E02DC7010995F3CF642F0E942B0548
:100DA000C801DF91CF911F910F91FF90EF90DF90DD
:100DB000CF900895CF93DF931F92CDB7DEB76983AD
:100DC00020916F032223F9F020919203203258F0F2
:100DD00021E030E0FC013383228390E080E00F903B
:100DE000DF91CF91089580917003E82FF0E0EF58E4
:100DF000FC4F998190838F5F80937003809392035F
:100E000081E090E0ECCF61E0CE0101960E942B05DD
:100E1000F7CF90E080E00895DF92EF92FF920F937A
:100E20001F93CF93DF93EC01D62E7A01890188813D
:100E30008C3008F067C061E08D2D0E94A901888187
:100E4000282F30E0F901EE0FFF1FE20FF31FEE5FD6
:100E5000FA4F9D2D9F736081607C692B608320E237
:100E600032E02E193F0937FF02C02D5F3F4F359505
:100E7000279535952795298320E639E0201B310BEE
:100E800037FF02C02D5F3F4F359527953595279544
:100E90002A832CE0622F0E94DA17829FB00111246E
:100EA00030E020E0AB01420F531FFA01EE0FFF1FAD
:100EB000E40FF51FEE5FFA4F908196FD16C02F5F8D
:100EC0003F4F2C30310571F781110FC01092800017
:100ED00082E0809381001092850010928400B19A84
:100EE00080916F00826080936F00E8818E2F90E088
:100EF000FC01EE0FFF1FE80FF91FEE5FFA4F808134
:100F0000806480838881DF91CF911F910F91FF9042
:100F1000EF90DF900895CF938830B0F421E030E077
:100F2000082E02C0220F331F0A94E2F740913403C7
:100F300050913503672B51F42095309524233523A8
:100F40003093350320933403CF910895242B352B10
:100F50003093350320933403909188029111F4CF9C
:100F6000C82F0E94E501BC018C2FCF910C94050481
:100F70005F926F927F928F929F92AF92BF92CF9229
:100F8000DF92EF92FF920F931F93CF93DF93833003
:100F900008F061C0D1E0D80FDD0FDD0FDD0F5D2E51
:100FA000D73110F046E1542EC62F082FD8508D2E81
:100FB000912CC401880F991F9C01205D3B4F590162
:100FC000D12CC12C10E077247394D515C8F58EEF81
:100FD0008D0F8231F8F4F601E80DF91DED54FB4F49
:100FE00090819230B8F48C2F87216624639481110C
:100FF00001C0612C7601EE0CFF1C913089F4172999
:1010000039E9E30EF11CF501EE0DFF1D862D90E090
:1010100091838083770CDF5F8FEFC81AD80AD5CF12
:10102000882371F3F701E756FF4FEA0DFB1D80811E
:101030009181019729F362E08D2F0E94A901E0CFF1
:10104000011119C0F8948BB16C2F68276C7F612354
:1010500068276BB97894DF91CF911F910F91FF9022
:10106000EF90DF90CF90BF90AF909F908F907F9048
:101070006F905F9008950130D1F4C123F89495B139
:10108000812F8F73809589239C2F9F73892B85B91E
:1010900088B1612F62956695669563706095682347
:1010A000C295C695C695C370C62BC8B9D3CF1F705D
:1010B000F89498B1812F880F880F80958923C123D8
:1010C000CC0FCC0FC82BF1CF8F929F92AF92BF92D3
:1010D000CF92DF92EF92FF920F931F93CF93DF9304
:1010E000EB01863108F098C0082F10E0F801ED54AC
:1010F000FB4F9081933009F49CC0943009F08CC070
:101100008250823108F081C0F801E259FD4FC08061
:10111000D12C7601EE0CFF1C4B01603282E0780787
:101120000CF03EC0F701EC0DFD1DE95DFA4F818129
:10113000A8E88A2E912C881A910887FD9394880C30
:10114000991C880C991C092C000CAA08BB088281E8
:1011500028E532E0281B310987FD3395220F331F24
:10116000220F331F032E000C440B550B281939098D
:101170004A095B09DB01653B710514F0A4EBB0E0A3
:10118000B7FF02C0B0E0A0E00E94A11724EB30E05E
:1011900040E050E00E947717820E931EA41EB51EF9
:1011A000F701EC0DFD1DE95DFA4F20812C3068F54B
:1011B000318188E890E0831B910937FD9395880F72
:1011C000991F880F991F881699067CF0328188E54F
:1011D00092E0831B910937FD9395880F991F880F23
:1011E000991F881699060CF4C4010297880F991F5D
:1011F0004FB7F89430E0F901EE0FFF1FE20FF31F35
:10120000EE5FFA4F928381834FBF000F111FF801E9
:10121000E753FB4FD183C083DF91CF911F910F9193
:10122000FF90EF90DF90CF90BF90AF909F908F9006
:1012300008957B01D82F833041F08BEF800F8230EF
:1012400020F087EF800F833058F461E08D2F0E94EB
:10125000A901E114F10461F460E08D2F0E945D01A9
:10126000000F111FF801E753FB4FF182E082D4CF4A
:101270008FEFE816F10411F461E0EFCFF801EC55BF
:10128000FF4FE491E33021F148F4E130B9F0E2306E
:10129000D1F080E8E816F1047CF7DECFE73011F1F9
:1012A000E83041F1E430A9F78091800080628093BA
:1012B0008000F0928B00E0928A00D2CF84B58068E3
:1012C00084BDE7BCCDCF84B5806284BDE8BCC8CF07
:1012D00080918000806880938000F0928900E09285
:1012E0008800BECF8091B00080688093B000E0920B
:1012F000B300B6CF8091B00080628093B000E092DE
:10130000B400AECF9EEF980F923180F4E82FF0E05A
:10131000DF01AD54BB4F9C91913041F4EE0FFF1FA4
:10132000E753FB4F608371830C945D010895FF9236
:101330000F931F93CF93DF9300D0CDB7DEB7082F65
:1013400010E0F801EA5FFC4F9081F62EF9220C576D
:101350001D4F411104C0F80190819F1511F12F2DEF
:1013600030E03A832983A0917004B0917104109702
:10137000B1F0682F6F706069ED91FC911197019049
:10138000F081E02DCD01099522E030E0AE014F5F04
:101390005F4F62E070E080E794E00E946603F8012E
:1013A000F0820F900F90DF91CF911F910F91FF90DE
:1013B0000895833040F5282F30E0F901E75FFC4FB6
:1013C0006083672B01F12A5F3C4FF9016081811135
:1013D00006C099B19C7F692341E00C949709813044
:1013E00049F493B126B19F73F0E42F9F900111242B
:1013F000922BF1CF26B130E035952795359527957D
:101400002F706223E9CF0895A82FB0E0A259BD4FF5
:101410009C91292F30E0F901EE0FFF1FE20FF31F1F
:10142000E95DFA4FE0812E2F30E0F901EE0FFF1F4A
:10143000E20FF31FEE5FFA4F80818F7B80838091F4
:101440006C02981308C0992319F0915090936C0284
:101450008FEF8C9308958823D9F3E0916D02EF5FAD
:10146000E0936D02F0E0E35EFD4F9083F1CFFC016D
:1014700001900020E9F73197BF01681B790BAC019F
:1014800081E70C946504CF93DF93DB0190916C02AC
:101490009C3078F530916D02682F70E0FB01E259C5
:1014A000FD4F3323E1F0C32FD0E0C35EDD4F8881D1
:1014B0008083315030936D02808123E0829FC00190
:1014C0001124895D9A4F1A161B0674F4141615061A
:1014D0005CF49A01AD01DF91CF910C940C079083DD
:1014E0009F5F90936C02E8CF20E639E040E252E043
:1014F000F2CF8DE291E0DF91CF910C94370A85ED28
:101500008093BC0080916B0390916C03A0916D035C
:10151000B0916E030796A11DB11D23E0B695A79566
:10152000979587952A95D1F72091BC0024FD03C09B
:1015300010926903089540916B0350916C03609180
:101540006D0370916E03452B462B472B69F3009773
:10155000A105B10541F02AE22A95F1F700C00197F3
:10156000A109B109E1CF80916A030C9470059F92A3
:10157000AF92BF92CF92DF92EF92FF920F931F93A1
:10158000CF93DF93C82ED12CE601C05DDB4FFE0167
:10159000ED57FF4F90819F3709F49FC0963061F45B
:1015A00090918702992341F06630710529F01092DD
:1015B00087029FEF909300017B01182F0EEF080F19
:1015C000023108F564307105F1F0F601E259FD4F82
:1015D00080818C30C0F490E0FC01EE0FFF1FE80F1B
:1015E000F91FE95DFA4FE0818E2F90E0FC01EE0FCC
:1015F000FF1FE80FF91FEE5FFA4F808186FF03C0DF
:10160000812F0E94040A52EF952E910E87E08915D2
:1016100058F061E070E032E0E316F10411F070E0A0
:1016200060E0892D0E948B070231C8F4E12FE69516
:10163000E695E695F0E0EA5FFC4F2081312F3770A8
:1016400081E090E001C0880F3A95EAF7E114F104D7
:1016500021F03BE0E316F10401F5822B8083560173
:10166000AA0CBB1CF501E753FB4F118210828CE0E2
:10167000E816F10408F0CBC0F701EF5BF44F0C94CF
:10168000E617610B8E0B500BA50BC40B070CFB0B65
:10169000070C070C070C6D0B790B80958223DECFAE
:1016A00037E03915D0F0023120F460E0812F0E943C
:1016B000A901CD57DF4F88818F3779F082E0888389
:1016C0000CC0023150F460E0812F0E94A901CD5777
:1016D000DF4F88818F3709F01882DF91CF911F91FA
:1016E0000F91FF90EF90DF90CF90BF90AF909F90C1
:1016F0000895023190F762E0812F0E94A901CD5731
:10170000DF4F88818F3711F08BE08883F501E75335
:10171000FB4F81E090E091838083DFCF0231E8F6D8
:10172000FE01ED57FF4F8081833021F460E0812F6F
:101730000E945D0161E0812F0E94A901CD57DF4F1A
:1017400088818F3751F281E0BACF133049F08BEFA7
:10175000810F823028F087EF810F833008F0BDCFF2
:1017600061E0812F0E94A90161E0812F0E94A901FF
:1017700060E0812F0E945D01CD57DF4F88818F3758
:1017800009F4ABCF83E09BCF023108F0A6CFCD5751
:10179000DF4F88818F3711F084E08883F601E259AA
:1017A000FD4F80818F3FA9F090E0FC01EE0FFF1FFD
:1017B000E80FF91FE95DFA4FE0818E2F90E0FC0100
:1017C000EE0FFF1FE80FF91FEE5FFA4F808186FDD5
:1017D00084CF4FEF5FEF6FEF7FEF812FDF91CF91DE
:1017E0001F910F91FF90EF90DF90CF90BF90AF903F
:1017F0009F900C94430A1251123008F06ECFCD57CF
:10180000DF4F88818F3709F468CF86E058CF81E4B5
:1018100091E0DF91CF911F910F91FF90EF90DF90BA
:10182000CF90BF90AF909F900C94370A0F931F9367
:10183000CF93DF9381E08093880280918702882391
:1018400029F0109287028FEF809300011092090314
:10185000109206031092840210920A03109207035A
:101860001092850210920B031092080310928602C8
:101870000EE612E0C0E0DFEF82EF8C0F62E070E076
:10188000883030F08EEF8C0F823128F461E070E008
:101890008C2F0E94B70AF801D1938F01CF5FC63118
:1018A00059F7109235031092340310926D02109282
:1018B0006C0210928802DF91CF911F910F910895D1
:1018C0004F925F926F927F928F929F92AF92BF9250
:1018D000FF920F931F93CF93DF93F82E8B01D42F9A
:1018E000C22F6F3F760709F490C081E080936F03A9
:1018F000F0929103109270031092920386EF94E09D
:101900000E94DA068C2F0E94910580916A029091C4
:101910006B028230910538F0880F991F880F991F4C
:1019200005970197F1F70E94FA014B015C01809144
:10193000690381116CC0CD2FD13208F0C0E281E083
:1019400080936903809368039FEF909367031092DD
:1019500066039C0F90936503809344039091440326
:101960008F2D880F892B809344038091430381300E
:1019700009F0A1C0109243030E94FA014B015C01DF
:10198000809144038093BB0080916B0390916C0322
:10199000A0916D03B0916E03892B8A2B8B2BA1F044
:1019A0000E94FA0140906B0350906C0360906D03AD
:1019B00070906E03681979098A099B0946165706C3
:1019C0006806790608F444C08091BC0083FDD8CF36
:1019D00085EC8093BC000E94FA014B015C01809170
:1019E0006903813009F469C0809166038C1710F493
:1019F000C0916603E5E4F3E0AAE8B2E080E08C176A
:101A000061F191919D938F5FFACF00E08CCF80912F
:101A10006B0390916C03A0916D03B0916E03892BC1
:101A20008A2B8B2B09F483CF0E94FA0140906B0321
:101A300050906C0360906D0370906E036819790983
:101A40008A099B09461657066806790608F06FCF83
:101A500080916A030E947005C0E01092AB02C093AF
:101A6000AA022D2F30E08C2F90E0281739070CF0B8
:101A700046C082E591E00E94370AF0922A02009364
:101A80002B020AE212E0AD2EB12CC8018A5292401C
:101A90008A159B050CF041C00F5F1F4F9091AA0261
:101AA0008091AB029817C9F186EF94E00E949306EB
:101AB000F8018183EACF85EE8CCF80916B03909102
:101AC0006C03A0916D03B0916E03892B8A2B8B2B35
:101AD00009F485CF0E94FA0140906B0350906C038B
:101AE00060906D0370906E03681979098A099B09EB
:101AF000461657066806790608F071CFA9CF8217F7
:101B000093070CF0BACF8FE691E00E94370AD0918C
:101B1000AA028091AB02D81BB0CFDE5F6D2F70E0C0
:101B20004AE252E087E7DF91CF911F910F91FF903A
:101B3000BF90AF909F908F907F906F905F904F90ED
:101B40000C946504EF92FF920F931F93CF93DF9352
:101B50008956823108F033C0EA01162FE82FF0E0F1
:101B6000EC54F24F0C94E617FA0FDF0D610FDF0D06
:101B7000B90FDF0D3F0FE30EDF0DDF0DDF0DDF0DC2
:101B8000DF0DC60DDF0DA70EDF0D290F998195FF23
:101B90000AC08BE891E0DF91CF911F910F91FF90E8
:101BA000EF900C94370A888131E096FB222720F9C8
:101BB000232798719830D1F148F49923A9F0DF9147
:101BC000CF911F910F91FF90EF900895903109F4FC
:101BD0004CC09831A1F72091000112160CF472C08C
:101BE0008FEF80930001EBCF30936F0380939103CD
:101BF000109270031092920302E0011778F4FE0134
:101C0000E00FF11D61816795662767958081680FF8
:101C100086EF94E00E94DA060E5FEFCF81E00E942B
:101C2000910583E191E00197F1F7C9CF9A814B814A
:101C30006630A1F430E8439FB0011124690F711D93
:101C40004D814795442747959C81490FDF91CF915E
:101C50001F910F91FF90EF900C94600C47954427D3
:101C60004795490F6FEF7FEFF1CFE0910001E7302B
:101C70001CF08BEA91E08FCF3A819B816630D9F4DA
:101C800060E8969FA0011124430F511D9D819795F7
:101C9000992797953C81930FEF5FE093000135E022
:101CA000E302F0011124E45FFC4F808352834183FF
:101CB0009383248384CF979599279795930F4FEF1C
:101CC0005FEFEACF90E0622F022E000C770B35E039
:101CD000492F50E06417750764F0349FF001359F79
:101CE000F00D1124E45FFC4F4081481719F09F5F0D
:101CF000EFCF90E085E0492F50E0641775071CF1A5
:101D00009830F8F4FA0131968E9FD0018F9FB00D74
:101D10001124A45FBC4F3C91849FF001859FF00D7E
:101D20001124E45FFC4F308311964D915C91129722
:101D30005283418313963C911397338314963C91BD
:101D400034839F5FD8CF21502093000138CF623079
:101D500078F0898160E8869F900111248881820F44
:101D6000932F911D009721F090936B0280936A024C
:101D700080918702811123CFC0E08EEE8C0F8230DC
:101D800028F466E070E08C2F0E94B70ACF5FC6315E
:101D9000A1F781E0809387021092AB021092AA0211
:101DA00010927003109292030E94520581E896E00F
:101DB0009093CE028093CD0282E896E09093D20277
:101DC0008093D102FCCE653008F4F9CE18818EEFF5
:101DD000810F823108F0F3CE0981EA80FB80CC814B
:101DE000E12FF0E0E259FD4F80818C30C0F490E0AB
:101DF000FC01EE0FFF1FE80FF91FE95DFA4FE081CC
:101E00008E2F90E0FC01EE0FFF1FE80FF91FEE5F31
:101E1000FA4F808186FF03C0812F0E94040A80E868
:101E2000C89FA00111244F0D511D90E8E99EB001FB
:101E30001124600F711D812F0E94430A64E070E03D
:101E4000812FDF91CF911F910F91FF90EF900C9414
:101E5000B70A623008F4B3CE8981E0E88E9F900122
:101E600011248881820F932F911D009729F0909360
:101E7000020180930101A3CE81E090E0F8CF6230AF
:101E800008F49DCE698170E0123091F08A81F0E80B
:101E90008F9FC0011124682B792B133049F08B815F
:101EA00090E090E4899F902D88271124682B792B4E
:101EB0008881DF91CF911F910F91FF90EF900C944B
:101EC000640880EF0E9401018CE60E940101CEEFC0
:101ED00084EF8C0F883020F582E00E9401018AE0B7
:101EE0000E9401018DEF8C0F8230E0F089EF8C0FA2
:101EF0008330F0F417C0C23158F780E00E9401012E
:101F000081E00E9401018BE00E94010181E00E94BA
:101F1000010181E00E94010181E00E940101D8CF0E
:101F2000C13001F783E00E94010188E00E940101B5
:101F3000C23130F484E00E9401018EE00E94010170
:101F400080EF8C0F823030F486E00E94010181E046
:101F50000E9401018FE70E940101CF5FC43159F651
:101F600087EFDF91CF911F910F91FF90EF900C942D
:101F70000101662309F423CEC88180EF0E9401018C
:101F80008EE60E9401018C2F0E940101C63140F7AC
:101F9000D0E0FE01ED54FB4F80810E940101CC0F87
:101FA000DD1F8E0107531B4FF80180818F770E9440
:101FB0000101F801808191819C012078232B39F067
:101FC000880F892F881F990B8F770E940101C753B3
:101FD000DB4F888199819C012227307C232B09F4D7
:101FE000BFCF990F880B990F982F881F8F770E946A
:101FF0000101B6CF80EF0E9401018AE60E94010133
:10200000C2EF8FE7C83008F48C2F0E940101CF5F28
:10201000C830B9F7A5CF1F920F920FB60F921124B7
:102020002F933F938F939F93AF93BF9380913B03E5
:1020300090913C03A0913D03B0913E0330913A034F
:1020400023E0230F2D3758F50196A11DB11D2093D4
:102050003A0380933B0390933C03A0933D03B093DA
:102060003E0380913F0390914003A0914103B091C2
:1020700042030196A11DB11D80933F03909340033D
:10208000A0934103B0934203BF91AF919F918F9171
:102090003F912F910F900FBE0F901F90189526E83B
:1020A000230F0296A11DB11DD2CF1F920F920FB622
:1020B0000F9211242F933F934F935F936F937F93CE
:1020C0008F939F93AF93BF93EF93FF9383E993E035
:1020D0000E94D702FF91EF91BF91AF919F918F9195
:1020E0007F916F915F914F913F912F910F900FBE14
:1020F0000F901F9018951F920F920FB60F921124F8
:102100002F938F939F93EF93FF93E091A303F0910D
:10211000A4038081E091A903F091AA0382FD1BC072
:1021200090818091AC038F5F8F732091AD038217F4
:1021300041F0E091AC03F0E0ED56FC4F958F8093B9
:10214000AC03FF91EF919F918F912F910F900FBE54
:102150000F901F9018958081F4CF1F920F920FB6A9
:102160000F9211240F900FBE0F901F9018951F9281
:102170000F920FB60F9211242F933F934F935F93BB
:102180006F937F938F939F93AF93BF93EF93FF933F
:102190008091B900887F803609F44AC0F0F5883212
:1021A00009F4A7C018F5803109F49BC0B8F488235E
:1021B00009F4F9C0883009F494C0FF91EF91BF9100
:1021C000AF919F918F917F916F915F914F913F91CF
:1021D0002F910F900FBE0F901F901895883109F422
:1021E00088C0803251F78093670314C0803409F4AB
:1021F0009DC040F48033B9F38833F9F680936703C8
:1022000085ECB0C0803509F485C0883509F496C0E6
:10221000883499F60E947F0AD0CF883909F48CC09F
:1022200038F5883729F050F4883611F0803729F6D0
:1022300083E0809369031092F30257C0883809F451
:102240007BC0803919F0803809F0B7CF8091F30254
:10225000803208F071C0E091F30281E08E0F80932C
:10226000F3028091BB00F0E0ED52FD4F80833DC052
:10227000803B39F0E0F4803A09F479C0883A09F0FB
:102280009CCF84E0809369031092D0021092CF0219
:10229000E091CD02F091CE0209958091CF0281119B
:1022A0000FC081E08093CF021092AD0209C0803C44
:1022B00009F4A6CF883C09F4A3CF883B09F07DCF71
:1022C000E091D00281E08E0F8093D002F0E0E355E0
:1022D000FD4F80818093BB009091D0028091CF020E
:1022E00029C0809144038093BB0085EC8093BC009F
:1022F00064CF9091660380916503981758F5E0913B
:10230000660381E08E0F80936603F0E0EB5BFC4F89
:102310008081E9CFE091660381E08E0F80936603B0
:102320008091BB00F0E0EB5BFC4F808390916603F3
:10233000809165039817C8F285E8D8CFE0916603CD
:1023400081E08E0F809366038091BB00F0E0EB5B31
:10235000FC4F80838091680381115CCF81E0809382
:10236000430384EA8093BC001092690326CF85EC76
:102370008093BC00109269038091F302803230F4A4
:10238000E091F302F0E0ED52FD4F10826091F30214
:1023900070E0E091D102F091D20283ED92E00995D4
:1023A0001092F3020ACF1092670334CF1F920F925C
:1023B0000FB60F9211242F933F934F935F936F9318
:1023C0007F938F939F93AF93BF93CF93DF93EF93BD
:1023D000FF9380918902C0912605D0E087FF24C039
:1023E0001092850010928400809189028F5F809303
:1023F000890280918902082E000C990B8C179D0789
:1024000024F4809189028C30C4F1809184009091F1
:102410008500049680349C4908F47AC08091840039
:1024200090918500049676C080918902082E000C58
:10243000990B8C179D07C4F6E09189028E2FEE0F41
:10244000990BFC01EE0FFF1FE80FF91FEE5FFA4F2B
:10245000808186FFC9CFE09189028E2FEE0F990B04
:10246000FC01EE0FFF1FE80FF91FEE5FFA4F8081AE
:1024700060E08F730E945D01B7CF2091840030919E
:102480008500E09189028E2FEE0F990BFC01EE0F73
:10249000FF1FE80FF91FEE5FFA4F81819281820FD3
:1024A000931F9093890080938800E09189028E2F7A
:1024B000EE0F990BFC01EE0FFF1FE80FF91FEE5F07
:1024C000FA4F808186FF11C0E09189028E2FEE0FB6
:1024D000990BFC01EE0FFF1FE80FF91FEE5FFA4F9B
:1024E000808161E08F730E945D01FF91EF91DF9128
:1024F000CF91BF91AF919F918F917F916F915F919C
:102500004F913F912F910F900FBE0F901F901895F4
:1025100080E49CE990938900809388008FEF8093FA
:102520008902E3CF109296031092950348EE53E090
:1025300060E070E040939703509398036093990391
:1025400070939A038DE091E09093940380939303AA
:1025500085EC90E09093A00380939F0384EC90E03F
:102560009093A2038093A10380EC90E09093A40346
:102570008093A30381EC90E09093A6038093A5033E
:1025800082EC90E09093A8038093A70386EC90E000
:102590009093AA038093A9031092AC031092AD0309
:1025A0001092AE031092AF0380E394E01092710496
:1025B00010927004909374048093730420E430E0CC
:1025C0003093760420937504109277041092780467
:1025D00010927A041092790410927B0410927D0478
:1025E00010927C0410927F0410927E041092810459
:1025F0001092800410928304109282041092850439
:102600001092840410928704109286041092890418
:102610001092880410928F0410928E0410929104EC
:1026200010929004109293041092920410929504C8
:10263000109294041092A3041092A20410927204B7
:102640001092B0041092B2041092B1041092F504EA
:1026500027E830E0309397042093960421E930E096
:1026600030939904209398042BE930E030939B0435
:1026700020939A0425EA30E030939D0420939C0433
:102680002FEA30E030939F0420939E0429EB30E042
:102690003093A1042093A00423EC30E03093A504F0
:1026A0002093A40424EC30E03093A7042093A604E4
:1026B00026E235E03093A9042093A80490938B047C
:1026C00080938A0422E532E03093AB042093AA047D
:1026D00090938D0480938C048FEC90E09093AD04E4
:1026E0008093AC041092F9041092F8044093FA0419
:1026F0005093FB046093FC047093FD048FE191E020
:102700009093F7048093F604E7E2F5E02FEF48EBAF
:102710005BE0809126058C30B8F491E0980F90939F
:102720002605808390E0DC01AA0FBB1FA80FB91F0C
:10273000AE5FBA4F12965C934E931197339685E035
:10274000EB34F80731F708952083F8CF789484B5F7
:10275000826084BD84B5816084BD85B5826085BD9D
:1027600085B5816085BD80916E00816080936E002B
:10277000109281008091810082608093810080911D
:1027800081008160809381008091800081608093CE
:1027900080008091B10084608093B1008091B0008E
:1027A00081608093B00080917A00846080937A0089
:1027B00080917A00826080937A0080917A008160B3
:1027C00080937A0080917A00806880937A001092DA
:1027D000C10085E18093B0048091B1049091B2046E
:1027E0000E948818C091B004D0E0CE0101960E94EA
:1027F000EC179093B2048093B104FC01EC0FFD1F21
:10280000108212E0DC011C9325E011962C93AE019E
:10281000425051096AE072E002960E94111984E662
:1028200098E0909301038093000388EB97E09093E6
:10283000FF028093FE028BE897E09093FD02809365
:10284000FC0289ED99E09093FB028093FA0287EBFA
:102850009AE09093F9028093F80282E899E09093CD
:10286000F7028093F60282EA9DE09093030380933F
:10287000020386E19CE09093050380930403E091BA
:10288000A303F091A4031083E091A303F091A403A8
:102890001082E0919F03F091A0031082E091A103C8
:1028A000F091A20380E180831092AB03E091A70333
:1028B000F091A80386E08083E091A503F091A60340
:1028C000808180618083E091A503F091A6038081DF
:1028D00088608083E091A503F091A60380818068E1
:1028E0008083E091A503F091A60380818F7D808392
:1028F0008091F50481114FC061E08DE00E94A90133
:1029000062ED70E080E090E00E941F0261E08DE0E7
:102910000E945D0168E270E080E090E00E941F028A
:1029200060E08DE00E945D0162ED70E080E090E08B
:102930000E941F0261E08DE00E945D0168E270E08C
:1029400080E090E00E941F0260E08DE00E945D0147
:102950006AEF70E080E090E00E941F02C5E062ED47
:1029600070E080E090E00E941F0261E08DE00E9434
:102970005D0168E270E080E090E00E941F0260E08C
:102980008DE00E945D01C15051F76DE770E080E07D
:1029900090E00E941F0283E993E09093AF0480933C
:1029A000AE04909371048093700480E794E00E94D9
:1029B000D70080E394E00E94B2040E94160C25E048
:1029C000D22EC0E0D0E0CC24C39402E010E0EE248C
:1029D000E394F12C80910903882349F069B1809137
:1029E000060368236C7F40E080E00E949709809195
:1029F0000A03882379F063B186B16F73B0E48B9FCB
:102A0000C0011124682B80910703682340E081E016
:102A10000E94970980910B03882359F066B1809139
:102A200008038F7066956695682340E082E00E94F7
:102A300097098091AE049091AF04DC01ED91FC9177
:102A40000084F185E02D0995892B09F4CEC1809190
:102A5000AE049091AF04DC01ED91FC910284F3850A
:102A6000E02D09959C018F3F980719F3982F8091CD
:102A70007B04882309F492C0973F09F07EC010922E
:102A80007B04A0917304B09174046C916137C1F11F
:102A9000693709F05CC0E091A804F091A90430976F
:102AA00041F280917C0490917D048330910560F423
:102AB00030E020E050E040E070E060E080918A0487
:102AC00090918B040995B5CFBD016D5F7F4F039742
:102AD0000E943E01BC016D5F7F4F80E00E940E01AD
:102AE000E0917304F09174049F012D5F3F4F428188
:102AF00050E0618170E0E091A804F091A904DECF7C
:102B00008091A4049091A504892B09F492CFBD0172
:102B10006F5F7F4F80917C0490917D0401970E94AC
:102B20003E01BC016F5F7F4F80E00E940E0160910B
:102B30007304709174046F5F7F4FE091A404F0916F
:102B4000A5048091900490919104099572CFE09131
:102B5000A604F091A704309709F46BCF9D012F5F75
:102B60003F4F40917C0450917D0441505109809128
:102B700092049091930409955CCF60917C047091CC
:102B80007D04822F0E940E0180917C0490917D042F
:102B9000019690937D0480937C044BCF60917904DF
:102BA00070917A046115710509F4B1C027FDAFC0B9
:102BB0006150710970937A0460937904822F0E94A6
:102BC0000E018091790490917A04892B09F031CF1C
:102BD00080917704882309F42CCF803D09F483C0C9
:102BE00040F4803949F1803C09F469C010927704BF
:102BF00020CF843FE1F1853F09F44DC0803EB1F71D
:102C0000E0919604F0919704309781F3A0917304BA
:102C1000B09174044C9120E8429FC0011124119698
:102C20004C91480F592F511D6091780480917E047A
:102C300090917F040995DACFE0919804F09199047E
:102C40003097A1F2A0917304B09174044C9120E8E4
:102C5000429FC001112411964C91480F592F511DCC
:102C6000609178048091800490918104E3CFE09199
:102C70009E04F0919F04309709F4B8CFA09173049B
:102C8000B09174044C9150E011966C91809186043F
:102C900090918704CFCFE091A004F091A1043097E8
:102CA00009F4A4CFA0917304B09174044C9150E046
:102CB00011966C918091880490918904BBCFE0912A
:102CC0009A04F0919B04309709F490CFA09173047B
:102CD000B09174044C9150E060917804809182042A
:102CE00090918304A7CFE0919C04F0919D043097CC
:102CF00009F47CCFA0917304B09174044C9150E01E
:102D000060917804809184049091850493CF903FE2
:102D100030F4822F8F7080937804922F907F903FB1
:102D2000F1F190F4903CB1F150F4903909F081CE7A
:102D300010937A0400937904909377047ACE903DAF
:102D400049F1903EA9F375CE993F09F442C028F4A9
:102D50008CE0890F823060F36CCE9F3F09F069CE22
:102D600010927A04109279041092770410927804E9
:102D700090E080E0209175043091760482179307EB
:102D8000A8F4E0917304F0917404E80FF91F108225
:102D90000196F0CFF0927A04E0927904CDCFC09200
:102DA0007B0410927D0410927C0443CE10927B042D
:102DB00010927D0410927C04E091AC04F091AD047B
:102DC0008091940490919504309709F432CE09953E
:102DD00030CEE091AA04F091AB04309709F429CEEB
:102DE00080918C0490918D04F2CF8FB7F8948090ED
:102DF0003B0390903C03A0903D03B0903E038FBFF7
:102E00008091360390913703A0913803B091390334
:102E1000409101015091020170E060E0881A990A26
:102E2000AA0ABB0A481559056A057B0508F054C073
:102E3000840F951FA61FB71F809336039093370307
:102E4000A0933803B093390380E3882E84E0982E52
:102E500092EFB92E87E08B15C8F0F401ED57FF4FC4
:102E60008081823099F480913403909135030B2C4A
:102E700002C0959587950A94E2F780FF07C08B2DD5
:102E80000E94E501BC018B2D0E940504B394AFEFB5
:102E90008A1A9A0AB8E0BB12DDCF8091000187FD43
:102EA0001BC0B12C2B2D30E080910001082E000CAE
:102EB000990B8217930784F0D29EF001D39EF00DF8
:102EC0001124E45FFC4F6181728124814381808100
:102ED0000E94600CB394E6CF209709F47BCD0E944A
:102EE000C302882309F476CD0E94000073CD052E1D
:102EF00097FB1EF400940E948E1757FD07D00E9486
:102F0000A91707FC03D04EF40C948E1750954095EA
:102F1000309521953F4F4F4F5F4F08959095809585
:102F2000709561957F4F8F4F9F4F08950E94CB17EB
:102F3000A59F900DB49F900DA49F800D911D11240D
:102F40000895B7FF0C9496170E949617821B930B57
:102F50000895A1E21A2EAA1BBB1BFD010DC0AA1FDA
:102F6000BB1FEE1FFF1FA217B307E407F50720F0F2
:102F7000A21BB30BE40BF50B661F771F881F991F6D
:102F80001A9469F760957095809590959B01AC01B6
:102F9000BD01CF010895A29FB001B39FC001A39FBF
:102FA000700D811D1124911DB29F700D811D112482
:102FB000911D0895991B79E004C0991F961708F098
:102FC000961B881F7A95C9F780950895EE0FFF1F0D
:102FD0000590F491E02D09940F931F93CF93DF9305
:102FE0008230910510F482E090E0E0914D05F0917F
:102FF0004E0530E020E0B0E0A0E0309799F42115D4
:10300000310509F44AC0281B390B24303105D8F5A5
:103010008A819B816115710589F1FB01938382830C
:10302000FE0111C040815181028113814817590767
:10303000E0F04817590799F4109761F012960C9335
:10304000129713961C933296CF01DF91CF911F9167
:103050000F91089500934D0510934E05F4CF21155F
:10306000310551F04217530738F0A901DB019A01ED
:10307000BD01DF01F801C1CFEF01F9CF90934E05FB
:1030800080934D05CDCFFE01E20FF31F8193919305
:103090002250310939832883D7CF20914B053091B5
:1030A0004C05232B41F4209105013091060130930A
:1030B0004C0520934B05209103013091040121150B
:1030C000310541F42DB73EB74091070150910801F9
:1030D000241B350BE0914B05F0914C05E217F307EB
:1030E000A0F42E1B3F0B2817390778F0AC014E5F78
:1030F0005F4F2417350748F04E0F5F1F50934C0564
:1031000040934B05819391939FCFF0E0E0E09CCFFB
:10311000CF93DF930097E9F0FC013297138212827C
:10312000A0914D05B0914E05ED0130E020E01097E3
:10313000A1F420813181820F931F20914B053091A2
:103140004C052817390709F061C0F0934C05E0934E
:103150004B05DF91CF910895EA01CE17DF07E8F51F
:103160004A815B819E0141155105B1F7E901FB835D
:10317000EA8349915991C40FD51FEC17FD0761F4FB
:10318000808191810296840F951FE901998388833C
:10319000828193819B838A83F0E0E0E012968D9197
:1031A0009C9113970097B9F52D913C911197CD0102
:1031B0000296820F931F20914B0530914C052817E2
:1031C000390739F6309751F510924E0510924D059A
:1031D000B0934C05A0934B05BCCFD383C2834081F1
:1031E0005181840F951FC817D90761F44E5F5F4F57
:1031F00088819981480F591F518340838A819B811F
:10320000938382832115310509F0B0CFF0934E05E9
:10321000E0934D059ECFFD01DC01C0CF13821282E9
:10322000D7CFFB01DC014150504048F001900D9296
:103230000020C9F701C01D9241505040E0F70895A9
:04324000F894FFCF30
:10324400FF130000004F05800000000000F9025940
:103254000286024603B7029502A90200000000DAC2
:1032640006AD0609078306A606930684064D617813
:1032740020736572766F732061747461636865642A
:1032840000556E6B6E6F776E2070696E206D6F6483
:1032940065004932433A20546F6F206D616E792086
:1032A4006279746573207265636569766564004943
:1032B40032433A20546F6F206665772062797465D3
:1032C400732072656365697665640031302D6269C7
:1032D400742061646472657373696E67206E6F74C1
:1032E40020737570706F7274656400746F6F206DF5
:1032F400616E792071756572696573002F55736508
:1033040072732F6164616E6D617572692F446F63AE
:10331400756D656E74732F41726475696E6F2F6C71
:1033240069627261726965732F4669726D61746155
:103334002F6578616D706C65732F5374616E646171
:1033440072644669726D6174612F5374616E646155
:0E33540072644669726D6174612E696E6F005D
:00000001FF
